:020000040800F2
:100000009035012081020008111700086D020008D8
:1000100045140008DF0800086D28000800000000F3
:10002000000000000000000000000000AD0100081A
:100030000D090008000000000902000899220008CC
:100040009B0200089B0200089B0200089B0200081C
:100050009B0200089B0200089B0200089B0200080C
:100060009B0200089B0200089B0200089B020008FC
:100070009B0200089B0200089B0200089B020008EC
:100080009B0200089B0200089B0200080000000081
:100090000000000000000000000000009B020008BB
:1000A0009B0200089B0200089B0200089B020008BC
:1000B0009B0200089B0200089B0200089B020008AC
:1000C0009B0200089B0200089B0200089B0200089C
:1000D0009B0200089B0200089B0200080000000031
:1000E0009B0200089B0200089B0200080000000021
:1000F0000000000000000000000000009B0200085B
:10010000000000009B0200089B0200089B02000800
:1001100000000000000000000000000000000000DF
:100120009B0200089B0200089B0200089B0200083B
:100130009B0200080000000000000000000000001A
:100140000000000000000000000000009B0200080A
:100150009B0200089B0200089B0200089B0200080B
:100160009B0200089B020008000000000000000045
:10017000000000000000000000000000000000007F
:10018000000000009B0200080000000000000000CA
:100190009B0200089B020008DFF80CD000F0E0FA98
:1001A0000048004789360008903501202C4B19681B
:1001B0000868B0E8F04F80F30988BFF36F8F4FF005
:1001C000000080F3118870470000000008480068B4
:1001D000006880F308884FF0000080F3148862B64E
:1001E00061B6BFF34F8FBFF36F8F00DF00BF00BF5B
:1001F00008ED00E0DFF80C00016841F470010160D7
:10020000704700BF88ED00E0EFF30980BFF36F8F08
:10021000134B1A681EF0100F08BF20ED108A20E95A
:10022000F04F106009B44FF0500080F31188BFF315
:100230004F8FBFF36F8F04F05FF94FF0000080F332
:10024000118809BC19680868B0E8F04F1EF0100F5B
:1002500008BFB0EC108A80F30988BFF36F8F704736
:1002600058000020EFF30580704700001EF0040FD7
:100270000CBFEFF30880EFF3098000F0E9BB00004A
:100280000648804706480047FEE7FEE7FEE7FEE730
:10029000FEE7FEE7FEE7FEE7FEE7FEE77523000860
:1002A00099010008D2B201E000F8012B491EFBD2EF
:1002B00070470022F6E710B513460A460446194671
:1002C000FFF7F0FF204610BD2DE9FE4F81EA030441
:1002D00004F0004421F0004100944FF0000B23F0A3
:1002E000004350EA01045ED052EA03045BD0C3F33A
:1002F0000A54C1F30A552C44A4F2F3340194A0FB30
:100300000254C1F3130141F48011C3F3130343F406
:10031000801301FB024400FB034E840A970A44EA5F
:10032000815447EA8357A4FB076802958D0A05FBB1
:1003300007854FEA932C04FB0C542705029D4FEAD6
:10034000065847EA1637B5EB08056EEB070C870E23
:10035000920E47EA811742EA8312A7FB0201B6EB2D
:100360000B0164EB00042B0D43EA0C335E1844EBE5
:100370001C50DA465146E7FB0201C5F313044FEA6D
:100380000B3343EA14534FEA0432019C43EA060359
:10039000A4F10C040294009CCDE900B400F07BF8B9
:1003A00003B0BDE8F08F00200146F9E700F00042FD
:1003B00030F000400AD0C10D01F56071C0F31600A5
:1003C00042EA0151C208400711437047002001462C
:1003D000704701F0004330B421F0004150EA0102BF
:1003E00006D00A0DA2F56072C1F31301002A02DCE7
:1003F00030BC00207047440F44EAC104C100E0183B
:1004000030BC00EBC250AFF300800029A8BF70479A
:10041000401C490008BF20F00100704710B4B0FA3A
:1004200080FC00FA0CF050EA010404BF10BC7047D5
:1004300049B1CCF1200421FA04F411FA0CF118BFEF
:10044000012121430843A3EB0C01CB1D4FEA0061BE
:100450004FEA102042BF002010BC704700EBC35091
:1004600010440029A4BF10BC7047401C490008BFBD
:1004700020F0010010BC704710B5141E73F1000489
:1004800008DA401C41F1000192185B411A4301D186
:1004900020F0010010BD2DE9F04D92469B4611B1B0
:1004A000B1FA81F202E0B0FA80F22032904600F018
:1004B00069F904460F4640EA0A0041EA0B01534637
:1004C0005A46084313D0114653EA010019D0C8F127
:1004D0004002504600F065F905460E465046594622
:1004E000424600F04FF9084305D0012004E02046C1
:1004F0003946BDE8F08D0020054346EAE0762C43FE
:1005000037430A986305E40AA0EB08000022FD0ABD
:1005100044EA47540A3002D500200146E9E70105C4
:1005200010196941DDE9084500196941BDE8F04D40
:10053000A2E72DE9FE4F804681EA0300C00F0C467A
:10054000009021F0004123F00045B8EB0200A941E2
:1005500005D24046214690461C460B46024623F0F3
:100560000040104347D0270DC7F30A00C3F30A51D8
:100570000290401A019040286BDAC3F3130040F454
:10058000801B0098924620B10023D2EB030A63EB54
:100590000B0B01985946C0F14002504600F0F2F8AA
:1005A00006460D4650465946019A00F00AF910EBEE
:1005B00008006141002487EA115284EAE7731A4374
:1005C00040D0009A62B3019A012A4FEA075215DC23
:1005D000001B61EB02014FF0004202EA0752CDE935
:1005E0000042001C41F5801132462B46FFF753FFB5
:1005F00003B0BDE8F08F40462146F9E7001B61EBF0
:100600000201001C41F5801300185B412018A2F57F
:10061000001747EB030140EAD570B6196D4111E0B0
:100620006D084FEA360645EAC0754FEA0752001BCF
:1006300061EB0201001C41F5801149084FEA3000CE
:100640000019514132462B4603B0BDE8F04FFFF789
:1006500013BF0098012240000023D0EB020263EB9D
:10066000E073009821464FEAE074B8EB000061EBBC
:100670000401E9E783F000435BE781F0004158E7BC
:100680002DE9F04D81EA030404F0004B21F0004510
:1006900014464FF0000A23F0004150EA050220D032
:1006A00054EA01021DD0C5F30A570246C5F31303ED
:1006B000C1F31300C1F30A5640F4801543F48013CC
:1006C000A7EB0608101BD64608F2FD3873EB0500B1
:1006D00002D308F1010801E092185B41B8F1000F64
:1006E00003DA00200146BDE8F08D00204FF48011B0
:1006F000064684460EE0171B73EB050705D3121B55
:1007000063EB050306434CEA010C49084FEA30004D
:1007100092185B4150EA0107EDD152EA030012D072
:1007200082EA040083EA0501084305D0101BAB41AF
:1007300006D20122002306E000224FF0004302E02F
:100740006FF0010253101AEB06004CEB085110EB4E
:100750000A0041EB0B01BDE8F04DFFF78DBE000034
:10076000064C074D06E0E06840F0010394E80700FE
:1007700098471034AC42F6D3FFF712FD704C0008D6
:10078000904C0008202A04DB203A00FA02F10020F5
:1007900070479140C2F1200320FA03F319439040BF
:1007A0007047202A04DB203A21FA02F0002170472A
:1007B00021FA02F3D040C2F12002914008431946C9
:1007C0007047202A06DBCB17203A41FA02F043EAB1
:1007D000E07306E041FA02F3D040C2F120029140FA
:1007E0000843194670472DE9F04D00231A461B1A9D
:1007F0008A4103DB00200146BDE8F08DC1F30A52B7
:10080000C1F3130141F480154FF0000BD10702D161
:1008100000186D41521E0027044640F2FF11384671
:1008200001EB620A3E468046024600204FF48011EA
:10083000FFF7B7FFC2197141BB1846EB0100B4EBDB
:10084000030C75EB000C04D3E41A65EB00051746A6
:100850000E46241908F101006D4180463428E3DD7D
:10086000F91946EB0600091BA84103D24FF0FF32ED
:10087000134601E0002213461BEB070046EB0A512A
:10088000BDE8F04DFFF7F8BD70B58C1810F8015BAE
:1008900015F0070301D110F8013B2A1106D110F819
:1008A000012B03E010F8016B01F8016B5B1EF9D11D
:1008B0002B0705D40023521E0DD401F8013BFAE7A3
:1008C00010F8013BCB1A921C03E013F8015B01F80E
:1008D000015B521EF9D5A142D8D3002070BD00BFE4
:1008E000FEE700000748006840F080700549086096
:1008F0000020054948600846006840F00100086093
:1009000070470000FCED00E0001000E0704730B5DB
:100910000446002504E04FF47A7000F005F86D1CE1
:10092000A542F8D330BD000010B5084B1B68084C39
:10093000B3FBF4F303FB00F1064B5A6800BF054B11
:100940005B689B1A8B42FAD310BD00001001002097
:1009500040420F00001000E0F0B50A4600210023DD
:10096000002400BF3DE0012505FA01F3156805EA02
:1009700003049C4234D105684F000326BE40B543B2
:10098000056015794E00B540066835430560157958
:10099000012D02D01579022D16D185684F0003264E
:1009A000BE40B543856055794E00B54086683543F5
:1009B0008560456801268E40B54345604568967957
:1009C0008E40B6B235434560C5684F000326BE4031
:1009D000B543C560D5794E00B540C6683543C5609E
:1009E000491C1029BFD3F0BDF0B5002300244D07EA
:1009F000ED0E02FA05F3CE1000F1200555F8265051
:100A00004E07F70E0F26BE40B543CF1000F120066B
:100A100046F82750CE1000F1200555F8265045EA3B
:100A20000304CE1000F1200545F82640F0BD024633
:100A3000002013690B400BB1012000E0002070473B
:100A4000816170470AB1816101E00B0483617047E5
:100A5000094A016811604168516081689160C1680C
:100A6000D160016911614169516181699161C16917
:100A7000D16100BFFEE700004C31012010B502201B
:100A8000FFF752FF80210448FFF7D1FF0446022000
:100A9000FFF74AFF204610BD0004024010B504468F
:100AA000224640210348FFF7CDFF0220FFF73CFF1D
:100AB00010BD00000004024010B50446224680210B
:100AC0000348FFF7BFFF0220FFF72EFF10BD000015
:100AD0000004024030B52DED108B95B004460D4654
:100AE000FC48FD49FD4BFE4ACDE90010FD49FE489A
:100AF00000F000FC9FEDFD0A8DED130A9FEDFB0A4F
:100B00008DED120A9FEDF90A8DED110A9FEDF81A8D
:100B1000F548B0F9000000EE100AF8EEC00AF548FA
:100B200090ED000A00F06CFBF24880ED000A9FEDAA
:100B3000F01AEC48B0F9000000EE100AF8EEC00A16
:100B4000ED4890ED000A00F05BFBEB4880ED000AF9
:100B50009FEDE71AE248B0F9000000EE100AF8EE47
:100B6000C00AE64890ED000A00F04AFBE34880ED39
:100B7000000AE04890ED000AE14880ED090ADE48ED
:100B800090ED000ADE4880ED0A0ADA4890ED000A8E
:100B9000DC48D0ED000A30EE600AF0EE409AD6480C
:100BA00090ED000AD848D0ED000A30EE600AB0EEB1
:100BB000408AD24890ED000AF0EE408AC748B0F96A
:100BC000000000EE100AB8EEC00AD048D0ED000ACE
:100BD00070EE600A9FEDCE1A80EE810A8DED130A49
:100BE000DFEDCC0A20EE200AB0EE40AABA48B0F9F8
:100BF000000000EE100AB8EEC00AC748D0ED000AA7
:100C000070EE600A9FEDC21A80EE810A8DED120A25
:100C1000DFEDC00A20EE200AF0EE40AAAD48B0F9A0
:100C2000000000EE100AB8EEC00ABC48D0ED000A81
:100C300070EE600A9FEDB61A80EE810A8DED110A02
:100C4000DFEDB40A20EE200AB0EE40BA9FEDB41AF0
:100C5000DDED130AB34890ED000A00F0D1FAB14877
:100C600080ED000A9FEDAE1ADDED120AAE4890ED60
:100C7000000A00F0C5FAAC4880ED000A9FEDA81A02
:100C8000DDED110AA94890ED000A00F0B9FAA74875
:100C900080ED000AA34890ED000A85ED000AA24805
:100CA00090ED000A85ED010AA04890ED000A85ED5F
:100CB000020A9F4890ED000A20EE000AF0EE40EA9A
:100CC00090ED000A9B48D0ED000A20EE200A8DED41
:100CD000100A974890ED000A9748D0ED000A20EEE0
:100CE000200A8DED0F0A924890ED000A9348D0ED4E
:100CF000000A20EE200A8DED0E0A8E4890ED000AC3
:100D000020EE000AB0EE40FA90ED000A8A48D0EDDD
:100D1000000A20EE200A8DED0D0A864890ED000AAB
:100D20008648D0ED000A20EE200A8DED0C0A82489C
:100D300090ED000A20EE000AF0EE40FA90ED000A75
:100D40007E48D0ED000A20EE200A8DED0B0A90EDD2
:100D5000000A20EE000A8DED0A0A29EEA90A08EE23
:100D6000080A08EEA80ADFED760AB4EEE00AF1EE12
:100D700010FA03D215B0BDEC108B30BD69EEA90A94
:100D800048EE080A48EEA80AB0EE600A02F05EFCDF
:100D9000B0EE409A29EE890AF0EE409A28EE090A50
:100DA000B0EE408A28EE890AF0EE408A9DED0C0AEA
:100DB000DDED0F0A30EE600AF0EE000A60EE20BAB8
:100DC0009DED100ADDED0B0A30EE200AF0EE000A70
:100DD00020EE20CA3EEECF0A70EE6F0A9DED0A0AA1
:100DE00070EE80CA28EE2C0AB0EE40DA08EECCDABB
:100DF00028EEAB0AF0EE40DA49EEECDA29EE8C0A86
:100E0000B0EE40EA08EE6BEA4E4890ED000ADFEDE6
:100E10004E0A0DEE200A80ED000A4C4890ED000AC3
:100E2000DFED490A0DEEA00A80ED000A484890ED7A
:100E3000000ADFED450A0EEE200A80ED000AF7EE0B
:100E4000080AB0EE4A0A00EE8D0A3E48D0ED000ACC
:100E500030EE200AB0EE40AAF7EE080AB0EE6A0AB9
:100E600000EEAD0A3948D0ED000A30EE200AF0EE6F
:100E700040AAF7EE080AB0EE4B0A00EE8E0A34489C
:100E8000D0ED000A30EE200AB0EE40BA294890EDCD
:100E9000000AB1EE400A20EE0A0A2748D0ED000A07
:100EA00000EEEA0A2548D0ED000A00EECB0A204801
:100EB000D0ED000A9FED271A40EE010AC0ED000AAE
:100EC00090ED000A20EE0A0A1B48D0ED000A00EE61
:100ED0008B0A41E0F2000020F0000020EE0000202C
:100EE000EC000020EA000020E800002000000000E4
:100EF000CDCCCC3EF4000020F8000020FC00002007
:100F00009401002040000020440000203400002014
:100F10003333834139FA8E3C380000203C000020F6
:100F20006666663FDC000020E0000020E400002050
:100F3000C0000020C4000020C8000020CC00002019
:100F400017B7D138D00000200AD7A33BD400002027
:100F5000D80000206F12833A9648D0ED000A00EEC8
:100F6000EA0A9548D0ED000A1FED061A40EE010A84
:100F7000C0ED000A914890ED000A20EE2A0A8E4842
:100F8000D0ED000A00EECB0A8A48D0ED000A00EE50
:100F90008A0A8B48D0ED000A1FED121A40EE010AB2
:100FA000C0ED000A854890ED000A20EE0B0A824849
:100FB000D0ED000A00EEAA0A8148D0ED000A00EE4A
:100FC000CA0A7C48D0ED000A1FED1E1A40EE010A45
:100FD000C0ED000A7948D0ED000A60EEA00A76481C
:100FE00090ED001AD0ED001A41EE210A744890ED00
:100FF000001AD0ED001A41EE210A6E4890ED001A59
:10100000D0ED001A41EE210AB0EE600A02F01EFB9C
:10101000B0EE409A694890ED000A20EE090A80ED92
:10102000000A654890ED000A20EE090A80ED000AEA
:10103000634890ED000A20EE090A80ED000A5D4841
:1010400090ED000A20EE090A80ED000A3EEE8F0ABC
:1010500070EE6F0A9DED0A0A30EEC00A10EE101A0B
:101060000846FFF7A3F9CDE904019DED0D0ADDED7A
:101070000E0A30EE200AF0EE000A20EE200A10EEF2
:10108000101A0846FFF792F9CDE902019DED041B05
:101090009DED020B01F020FF8DED060B9FED490B3E
:1010A00053EC102B9DED060B51EC100BFFF70CF9D8
:1010B000CDE908019DED080B51EC100BFFF789F904
:1010C000A0609DED0C0ADDED0F0A30EE600AF0EE37
:1010D000000A20EE200A10EE101A0846FFF766F903
:1010E000CDE902019DED020B01F0DAFB8DED040B61
:1010F0009DED040B51EC100B81F000419FED310B85
:1011000053EC102BCDE906019DED060B51EC100BB5
:10111000FFF7DAF8CDE908019DED080B51EC100B53
:10112000FFF757F920603EEECF0A70EE6F0A9DED93
:101130000A0A30EE800A10EE101A0846FFF736F958
:10114000CDE902019DED0B0AF0EE000A20EE200A27
:10115000DDED100AB0EE001A01EE200A10EE101AB2
:101160000846FFF723F9CDE900019DED021B9DED37
:10117000000B01F0B1FE8DED040B9DED040B51EC65
:10118000100B81F000419FED0F0B53EC102BCDE9BC
:1011900006019DED060B51EC100BFFF795F8CDE91C
:1011A00008019DED080B51EC100BFFF712F9606080
:1011B00000BFDFE5CC000020C4000020C0000020FC
:1011C000C80000200000006066A64C404AF6AA2035
:1011D0000149086070470000003000400149486044
:1011E00070470000003000400149886070470000EF
:1011F00000300040014908607047000000300040A6
:10120000F0EE401A21EE200AB7EE002A32EE412A13
:1012100002EE210A704700002DE9F04389B0002456
:10122000002500260027A046A1461AE003A804A92D
:1012300005AB06AACDE9001007A908A800F05AF8E6
:10124000BDF914000444BDF910000544BDF90C00BB
:101250000644BDF920000744BDF91C00804409F193
:101260000109B9F5FA6FE1DB00EE104AB8EEC00AE9
:10127000DFED1A0A80EE201A194880ED001A00EE00
:10128000105AB8EEC00ADFED150A80EE201A154894
:1012900080ED001A00EE106AB8EEC00ADFED0F0A0A
:1012A00080EE201A104880ED001A00EE107AB8EE99
:1012B000C00ADFED0A0A80EE201A0C4880ED001A01
:1012C00000EE108AB8EEC00ADFED040A80EE201AA4
:1012D000074880ED001A09B0BDE8F0830000FA4429
:1012E00034000020380000203C0000204000002096
:1012F000440000202DE9F05F06460F4690469946CF
:10130000DDE90AAB3B2000F067F804463C2000F022
:1013100063F8054645EA042000B230803D2000F025
:101320005BF804463E2000F057F8054645EA0420E5
:1013300000B238803F2000F04FF80446402000F013
:101340004BF8054645EA042000B2A8F80000432007
:1013500000F042F80446442000F03EF8054645EA15
:10136000042000B2A9F80000452000F035F804463A
:10137000462000F031F8054645EA042000B2AAF8FC
:101380000000472000F028F80446482000F024F828
:10139000054645EA042000B2ABF80000BDE8F09F26
:1013A00010B500F051F801216B2000F034F8002155
:1013B0006C2000F030F80921192000F02CF80321EE
:1013C0001A2000F028F818211B2000F024F818211A
:1013D0001C2000F020F810BD70B5044600F0D2F8D3
:1013E000D02000F0ADF800F05DF8204600F0A8F83D
:1013F00000F058F800F0C6F8D12000F0A1F800F095
:1014000051F800F063F80546012000F07FF800F085
:10141000D7F8284670BD70B505460C4600F0B2F806
:10142000D02000F08DF800F03DF8284600F088F854
:1014300000F038F8204600F083F800F033F800F0B0
:10144000BFF870BD00BFFEE71CB50121022000F00F
:1014500071FD01208DF804008DF8060040200090F9
:1014600001208DF8070002208DF8050069460C4820
:10147000FFF772FA01208DF804008DF80600802035
:10148000009001208DF8070002208DF805006946C4
:101490000348FFF761FAC0210148FFF7D1FA1CBDEC
:1014A0000004024010B50848006820F44040064996
:1014B00008600120FFF7F2FAFFF7E0FA0446002087
:1014C000FFF7ECFA204610BD0004024070B500257D
:1014D0000D48006820F440400B49086000240EE0ED
:1014E0000120FFF7DBFAFFF7C9FA012802D18020BB
:1014F000204105430020FFF7D1FA601CC4B2082C3C
:10150000EEDB284670BD00000004024010B5044622
:101510000020FFF7C3FA0948006820F4404040F477
:101520008040064908602046FFF7C6FA0120FFF711
:10153000B5FA0020FFF7B2FA10BD00000004024027
:1015400070B505460E48006820F4404040F48040E5
:101550000B4908600020FFF7A1FA00240DE080216C
:10156000214101EA0500FFF7A7FA0120FFF796FAEB
:101570000020FFF793FA601CC4B2082CEFDB70BDAB
:101580000004024010B50D48006820F4404040F4CB
:1015900080400A4908600120FFF78EFA0120FFF71A
:1015A0007DFA0420FFF7C0F90020FFF785FA042038
:1015B000FFF7BAF90020FFF771FA10BD00040240EE
:1015C00010B50D48006820F4404040F480400A49BE
:1015D00008600020FFF762FA0020FFF76DFA042090
:1015E000FFF7A2F90120FFF759FA0420FFF79CF951
:1015F0000120FFF761FA10BD0004024010B5044657
:1016000000BF02210A4800F039FD0128F9D1214626
:10161000074800F03FFD00BF0121054800F02EFD06
:101620000128F9D1024800F032FDC0B210BD00001F
:101630000038004000B587B00121880300F08AFC23
:101640000121022000F076FC05220D212E48FFF733
:10165000CBF905220E212C48FFF7C6F905220F21F0
:101660002948FFF7C1F94FF46040059002208DF83A
:10167000180000208DF81A008DF81B0002208DF84C
:10168000190005A92048FFF767F94FF4805005902D
:1016900001208DF8180000208DF81A0001208DF827
:1016A0001B0002208DF8190005A91748FFF754F90F
:1016B0004FF480511448FFF7C3F9144800F086FC3A
:1016C0004FF48270ADF802000020ADF80000ADF8D4
:1016D0000400ADF80600ADF808004FF40070ADF856
:1016E0000A001020ADF80C000020ADF80E00072015
:1016F000ADF810006946054800F0CEFC0121034812
:1017000000F058FC07B000BD000402400038004063
:101710007047000070B50025002400F06DF908B195
:10172000002070BD02F034FD2D4800782D4908706E
:101730002B48407848702A48C0782949897840EA7F
:101740000125274840792649097940EA012000EE21
:10175000100AB8EEC00A234880ED040A2048C07978
:101760001F49897940EA012000EE100AB8EEC00A4C
:101770001C4880ED030A1A48407A1949097A40EA60
:10178000012000EE100AB8EEC00A164880ED010AEA
:101790001348807A134908751148C07A487502F0D9
:1017A00021FDB5F5027F01DA4FF4027500BFA5F502
:1017B00002704FF4617148434FF4F07190FBF1F403
:1017C000B4F5617F01DD4FF4617400EE104AB8EEAC
:1017D000C00A044880ED020A0349CC710120A0E749
:1017E00034020020DC3001201402002010B500F08B
:1017F00081F9AA202C4908700F2088700846C4700F
:101800000020087129480078487108468571FF203A
:10181000C872274890ED000ABCEEC00A10EE100A0C
:101820000873234890ED010ABCEEC00A10EE100ABE
:1018300048731F4890ED020ABCEEC00A10EE100A71
:1018400088731B4890ED030ABCEEC00A10EE100A24
:10185000C873174890ED040ABCEEC00A10EE100AD7
:101860000874134890ED050ABCEEC00A10EE100A89
:1018700048740F4890ED060ABCEEC00A10EE100A3C
:1018800088740B4890ED070ABCEEC00A10EE100AEF
:10189000C874074890ED080ABCEEC00A10EE100AA2
:1018A000087500F0E9F810BD140200202A0100209C
:1018B0009401002010B5002002F028FBE220FFF781
:1018C0009DFE012002F022FB10BD10B5002002F0A9
:1018D0001DFBE120FFF792FE012002F017FB10BD77
:1018E0001CB50121022000F025FB4FF48060009020
:1018F00001208DF8040000208DF8060001208DF8ED
:10190000070002208DF8050069460348FFF724F818
:10191000002000F003F91CBD0004024010B5FFF7E1
:1019200089FEFFF7DDFF002000F0F8F80F2100200E
:1019300000F000F90121084600F0FCF80121022026
:1019400000F0F8F80321084600F0F4F80321042021
:1019500000F0F0F89021052000F0ECF80E210620B0
:1019600000F0E8F8052208490A2000F0F4F82021E8
:10197000112000F0DFF8FFF79DFF0220FEF7C7FF00
:1019800000F068F810BD00004800002070B5044663
:10199000002002F0BBFA2046FFF730FEFF20FFF7E1
:1019A0002DFE0546012002F0B1FA284670BD70B543
:1019B00005460E46002002F0A9FA6120FFF71EFE40
:1019C000002405E0FF20FFF719FE2855601CC4B273
:1019D000B442F7DB012002F099FA70BD10B5002087
:1019E00002F094FAFF20FFF709FE0446012002F0FE
:1019F0008DFA204610BD000010B5FFF7EFFF04463A
:101A000004F0400078B120211048FFF7D0FF4021BA
:101A1000072000F08FF8FFF74DFF4FF47A700C4964
:101A20000860002010BD0A4801680068401E084A8E
:101A3000106049B94FF47A7011460860FFF76EFFE5
:101A400000F008F80120EDE70120EBE73402002068
:101A50005400002010B5002000F060F80020FFF7CF
:101A600095FF044644F003042146002000F062F88C
:101A7000012000F053F810BD70B505221B4910205D
:101A800000F069F820211A4800F07FF80522174974
:101A90000A2000F060F800F02DF8002519E06D1C18
:101AA000FFF79CFF044604F0200038B1FFF70DFF5C
:101AB0002021072000F03EF8012070BD04F0100046
:101AC00038B1FFF702FF1021072000F033F80220A1
:101AD000F3E74CF250308542E1D3FFF7F6FE702178
:101AE000072000F027F80320E7E700004D00002062
:101AF0001402002010B5002000F010F80020FFF7BD
:101B000045FF044644F0020424F00104214600206D
:101B100000F010F8012000F001F810BD10B50446E7
:101B200022464FF480610248FEF78CFF10BD000092
:101B30000004024070B504460D46002002F0E6F9AC
:101B400044F02000FFF75AFD2846FFF757FD01201B
:101B500002F0DCF970BD2DE9F04105460E4617464E
:101B6000002002F0D3F945F02000FFF747FD0024E4
:101B700004E0305DFFF742FD601CC4B2BC42F8DBFC
:101B8000012002F0C3F9BDE8F08170B505460E46AC
:101B9000002002F0BBF9A020FFF730FD002404E094
:101BA000285DFFF72BFD601CC4B2B442F8DB0120B6
:101BB00002F0ACF970BD000002490143024A116015
:101BC000704700000000FA050CED00E030EE601AEE
:101BD00080ED031A90ED031AD0ED061A31EE611A6A
:101BE00080ED051A3E49097D0A2945D13C4991ED10
:101BF000021ADFED3C1AB4EEE11AF1EE10FA3BDB0B
:101C000090ED071AB4EEE01AF1EE10FA08D390ED59
:101C1000071AB1EE411AB4EEE01AF1EE10FA02DD45
:101C2000002141622CE00121416290ED041AD0EDC7
:101C3000031A31EE211A80ED041A90ED041AD0ED4A
:101C4000081AB4EEE11AF1EE10FA03DD90ED081A6D
:101C500080ED041A90ED041AD0ED081AF1EE611A25
:101C6000B4EEE11AF1EE10FA0AD290ED081AB1EED4
:101C7000411A80ED041A03E09FED1B1A80ED041A4F
:101C800090ED001AD0ED031A21EE211A80ED0A1A08
:101C900090ED091AB8EEC11AD0ED011A21EE211A01
:101CA000D0ED041A21EE211A80ED0B1A90ED021AE4
:101CB000D0ED051A21EE211A80ED0C1A90ED0A1ACA
:101CC000D0ED0B1A31EE211AD0ED0C1A31EE211A9B
:101CD00080ED0D1A90ED031A80ED061A7047000092
:101CE000DC300120000048430000000000206C4967
:101CF00048629FED6C0A084680ED070A9FED6A0A6C
:101D000080ED080A0020694948629FED690A08468B
:101D100080ED070A9FED670A80ED080A00206649FA
:101D200048629FED600A084680ED070A9FED5E0A53
:101D300080ED080A0020614948629FED5D0A08466F
:101D400080ED070A9FED5B0A80ED080A00205C49E0
:101D500048629FED540A084680ED070A9FED590A34
:101D600080ED080A0020584948629FED510A084654
:101D700080ED070A9FED4F0A80ED080A00205349C5
:101D800048629FED530A084680ED070A9FED500A0E
:101D900080ED080A00204F4948629FED4F0A08462F
:101DA00080ED070A9FED430A80ED080A4B4890ED4D
:101DB000000A3B4880ED000A494890ED000A3E4881
:101DC00080ED000A474890ED000A3D4880ED000A8A
:101DD000454890ED000A324880ED010A434890EDF5
:101DE000000A354880ED010A414890ED000A344868
:101DF00080ED010A3F4890ED000A294880ED020A73
:101E00003D4890ED000A2C4880ED020A3B4890EDD9
:101E1000000A2B4880ED020A394890ED000A234859
:101E200080ED000A374890ED000A244880ED000A52
:101E3000354890ED000A244880ED000A334890EDC3
:101E4000000A1A4880ED010A314890ED000A1B484B
:101E500080ED010A2F4890ED000A1B4880ED010A31
:101E60002D4890ED000A114880ED020A2B4890EDB4
:101E7000000A124880ED020A294890ED000A124833
:101E800080ED020A274890ED000A274880ED000AFD
:101E9000264890ED000A264880ED000A70470000B1
:101EA000C42F01200000164300C0DA451C2F01207A
:101EB00000000C4200004843FC2F0120542F012059
:101EC00034300120000096448C2F01206C3001201A
:101ED00000000000A43001200000C8423C010020A6
:101EE0004801002054010020400100204C01002046
:101EF0005801002044010020500100205C01002016
:101F0000600100206C0100207801002064010020A5
:101F1000700100207C010020680100207401002075
:101F200080010020840100200001002088010020A1
:101F30000401002029B1064A12680243044B1A60CA
:101F400004E0034A12688243014B1A6070470000A4
:101F50003038024029B1064A12680243044B1A6025
:101F600004E0034A12688243014B1A607047000084
:101F70004038024029B1064A12680243044B1A60F5
:101F800004E0034A12688243014B1A607047000064
:101F90002038024029B1064A12680243044B1A60F5
:101FA00004E0034A12688243014B1A607047000044
:101FB0002438024021B1028842F04002028004E04D
:101FC00002884FF6BF731A400280704710B504466E
:101FD0002448844208D101218014FFF7DBFF00214F
:101FE000A014FFF7D7FF3CE01F48844208D101212D
:101FF0000014FFF7BFFF00212014FFF7BBFF30E004
:102000001A48844208D10121C013FFF7B3FF002111
:10201000E013FFF7AFFF24E01548844208D1012107
:102020004014FFF7B7FF00216014FFF7B3FF18E07B
:102030001048844209D101210805FFF7ABFF0021B8
:102040004FF48010FFF7A6FF0BE00B48844208D145
:1020500001214805FFF79EFF00214FF40010FFF714
:1020600099FF10BD0030014000380040003C0040A6
:10207000003401400050014000540140024600205D
:1020800013890B400BB1012000E00020704701468E
:10209000888970478181704710B50022028802F458
:1020A00041520B884C8823438C882343CC8823439C
:1020B0000C8923434C8923438C892343CC892343B4
:1020C0001A430280838B4FF2FF74234083830B8A71
:1020D000038210BD10B55FE0FFF71CFB2F48007EA8
:1020E000082836D2DFE800F035040B121920272E1D
:1020F00023462B4A2B492C4801F0FAFA29E02346C3
:102100002A4A2B492B4801F0F3FA22E023462A4AB7
:102110002A492B4801F0ECFA1BE02346294A2A49B8
:102120002A4801F0E5FA14E02346294A29492A48B9
:1021300001F0DEFA0DE02346284A2949294801F03A
:10214000D7FA06E02346284A2849294801F0D0FA60
:1021500000BF00BF274840780F281DD1124890EDDE
:10216000000AB5EEC00AF1EE10FA0BD0114890ED5E
:10217000000AB5EEC00AF1EE10FA03D000201E49A5
:10218000087002E001201C490870FFF7B3FCFFF75C
:102190002DFBFFF75FFC10BD9EE70000340200201E
:1021A00044010020400100203C010020500100209B
:1021B0004C010020480100205C0100205801002053
:1021C000540100206801002064010020600100200B
:1021D00074010020700100206C01002080010020AB
:1021E0007C010020780100208C0100208801002063
:1021F00084010020DC3001202A01002022480068F0
:1022000040F08050204908602048006840F4404079
:102210001E4908601C48383800681B493839086076
:102220000846006808600846006840F4805008606E
:102230001748091F0860081F006840F08070091FD8
:10224000086000BF10484038006800F000700028A7
:10225000F8D040F203700F4908600B483838006826
:1022600020F003000849383908600846006840F04B
:102270000200086000BF04483838006800F00C0015
:102280000828F8D170470000403802400070004034
:1022900010640107003C024010B500BF502080F3DD
:1022A0001188BFF34F8FBFF36F8F00BF02F0B0FAFA
:1022B00018B14FF080500449086000BF002080F33F
:1022C000118800BF10BD000004ED00E070B50020D3
:1022D0000021022200230224214D2D6805F00C006C
:1022E00020B1042806D0082829D107E01D4D1E4E34
:1022F000356028E01D4D1C4E356024E0184D2D1F23
:102300002D68C5F38053164D2D1F2D6805F03F0431
:102310004BB9144DB5FBF4F5114E361F3668C6F3B4
:10232000881605FB06F10E4D2D1F2D68C5F30145DE
:102330006D1C6A00B1FBF2F50B4E356003E0094DF0
:10234000094E356000BF00BF054D2D68C5F303156C
:10235000074E705D044D2D68C540034E356070BD5D
:10236000083802400024F4001001002040787D016C
:102370001401002010B51548006840F4700013499E
:1023800008601348006840F001001149086000200F
:102390000F49083108600E4800680E4908400C4992
:1023A00008600D48091D0860081F006820F480209F
:1023B000091F0860002006490C310860FFF71EFF66
:1023C0004FF0006001498039086010BD88ED00E0E1
:1023D00000380240FFFFF6FE1030002400B58BB03D
:1023E00001210220FFF7B6FD01210320FFF7A2FD26
:1023F00002208DF8280000208DF82A0001208DF899
:102400002B0003208DF82900C020099009A930482D
:10241000FEF7A2FA022206212D48FEF7E5FA022273
:1024200007212B48FEF7E0FA0320099009A9294863
:10243000FEF792FA022200212648FEF7D5FA022280
:1024400001212448FEF7D0FA5320ADF8180040F2DD
:10245000E73007900020ADF82000ADF81A0006A97B
:102460001D4800F0C1F96020ADF804000120ADF86E
:1024700006000020ADF81000039001A9164800F0F6
:102480005FF801A9144800F0A3F801A9124800F070
:10249000FFF801A9104800F055F908210E4800F096
:1024A0008DF808210C4800F0E5F808210A4800F0F2
:1024B0003FF90821084800F081F90121064800F0A1
:1024C0000DF80121044800F02FF80BB000BD00000A
:1024D00000000240000402400004004021B10288D4
:1024E00042F08002028004E002884FF67F731A40B7
:1024F000028070472DE9F04104460F4615461E46FE
:102500002146084800F067F93946064800F065F9A9
:102510002946044800F063F93146024800F061F9A9
:10252000BDE8F0810004004021B1028842F00102C0
:10253000028004E002884FF6FE731A400280704762
:1025400070B5002400220023058C4FF6FE7635403E
:102550000584028C8388048B4FF68F752C40B51E42
:102560002C400D882C43751E2A408D892A434D88A6
:102570002A43104DA84202D00F4DA84213D14FF666
:10258000F7752A40CD892A434FF6FB752A408D887E
:102590002A434FF6FF652B404FF6FF552B400D8A1F
:1025A0002B434D8A2B43838004838D6845630284CB
:1025B00070BD000000000140000401400A460021F7
:1025C000018B4FF6F77319401143018370470000E8
:1025D00070B5002400220023058C4FF6EF763540BD
:1025E0000584028C8388048B48F6FF752C404FF6D7
:1025F000FF452C400D884FF6FF7606EA05252C4353
:102600004FF6DF752A408D8906EA05152A434D8865
:1026100006EA05152A43154DA84202D0144DA842DA
:102620001DD14FF67F752A40CD894FF6FF7606EA19
:1026300005152A434FF6BF752A408D8806EA051511
:102640002A434FF6FF352B404FF2FF752B400D8A82
:1026500006EA85052B434D8A06EA85052B438380D0
:1026600004838D688563028470BD00000000014012
:10267000000401400A460021018B4FF2FF7319400C
:102680004FF6FF7303EA02231943018370470000EA
:1026900070B5002400220023058C4FF6FF663540FC
:1026A0000584028C8388848B4FF68F752C404FF6FF
:1026B000FC752C400D882C434FF6FF552A408D8920
:1026C0004FF6FF7606EA05252A434D8806EA0525DA
:1026D0002A43154DA84202D0144DA8421DD14FF2F5
:1026E000FF752A40CD894FF6FF7606EA05252A4375
:1026F0004FF6FF352A408D8806EA05252A434EF617
:10270000FF752B404DF6FF752B400D8A06EA051527
:102710002B434D8A06EA05152B43838084838D68FD
:10272000C563028470BD0000000001400004014048
:102730000A460021818B4FF6F773194011438183BC
:102740007047000070B5002200230024058C4EF66F
:10275000FF7635400584038C8488828B48F6FF75AC
:102760002A404FF6FF452A400D884FF6FF7606EACD
:1027700005252A434DF6FF752B408D8906EA053560
:102780002B434D8806EA05352B430A4DA84202D05B
:10279000094DA84208D14BF6FF752C400D8A4FF623
:1027A000FF7606EA85152C43848082838D68056454
:1027B000038470BD00000140000401400A4600216E
:1027C000818B4FF2FF7319404FF6FF7303EA022328
:1027D0001943818370474163704781637047C163C8
:1027E000704701647047000000220288184B98422D
:1027F0000ED0184B98420BD0B0F1804F08D0164B3A
:10280000984205D0154B984202D0154B984204D1FE
:102810004FF68F731A404B881A43124B984207D0D9
:10282000114B984204D04FF6FF431A400B891A43CC
:1028300002804B68C3620B880385054B984202D027
:10284000044B984201D18B7A03860123838270471F
:102850000000014000040140000400400008004066
:10286000000C0040001000400014004000BFFEE7D4
:1028700003B401984100009850EAC12018BF042019
:102880004A0D18BF40F0010040F2FF72B2EB515FF9
:1028900008BF40F00200012808BF052002B07047C1
:1028A00070B5C1482DED020B2DED0E8B82B0119D40
:1028B00025F000449FEDBEDB9FEDBFEB84423EDB85
:1028C000A4F140511098A1F17F6108430FD0BC489A
:1028D000844202DC28D1109830B39DED100B02B079
:1028E000BDEC0E8B02B0BDE8704000F069BC9DED00
:1028F000100B53EC1D2B51EC100BFDF7E5FC9DED7F
:10290000100B41EC180B53EC1E2B51EC100BFDF788
:10291000DBFC53EC182BFDF70CFE41EC100B02B066
:10292000BDEC0E8B02B070BD012000F08DFC02B03A
:10293000BDEC0E8B02B0BDE8704000F055BCA14864
:102940009FEDA18B844256DA9DED100BB4F1795FB7
:102950000ADA51EC100BFFF78BFF042808BF00F0D8
:1029600053FC9DED100BDAE753EC102B51EC100BE0
:10297000FDF7AAFC41EC190B95480621B0EE490A77
:10298000F0EE690A784400F09FFB53EC192B51ECF0
:10299000100BFDF799FC41EC1A0B8E48B0EE490A7A
:1029A000F0EE690A0421784400F08EFB53EC192BF9
:1029B00051EC100BFDF788FC53EC182BFDF7B9FD1B
:1029C00041EC100B51EC1A0B53EC102BFDF758FE99
:1029D000CDE900019DED000B53EC102B9DED100B8C
:1029E00051EC100BFDF770FC9DED101B53EC112BFF
:1029F000FDF79FFDD2E09DED100B51EC100B00F0A8
:102A0000C1FD53EC182BFDF738FE9FED730BCDE99C
:102A1000000153EC102B9DED000B51EC100BFDF75A
:102A200053FC41EC190B6E480621B0EE490AF0EE5A
:102A3000690A784400F048FB53EC192B51EC100B59
:102A4000FDF742FC41EC1B0B6648B0EE490AF0EE84
:102A5000690A0421784400F037FB53EC192B51EC40
:102A6000100BFDF731FC53EC182BFDF762FD41EC28
:102A70001C0B51EC190B01F055FA41EC180B5A489C
:102A80009FED5BABA04222DC53EC1C2B51EC1B0BEB
:102A9000FDF7F6FDCDE900019DED000B51EC180BA3
:102AA00053EC102BFDF710FC53EC182BFDF741FDF8
:102AB00053EC1A2BFDF708FC53EC1D2BFDF7DAFD48
:102AC00053EC1E2BFDF7D9FD41EC100B5FE08DEDB3
:102AD000008B002000909DED000B51EC180B53EC87
:102AE000102BFDF726FD9DED000B41EC1E0B53EC6A
:102AF000102B51EC100BFDF7E7FB53EC192BFDF7F6
:102B0000BCFD53EC1E2BFDF7BBFD41EC190B53EC48
:102B10001C2B51EC1B0BFDF7B3FD41EC1B0B53ECD5
:102B20001A2B51EC190BFDF7CFFB53EC1D2BFDF7C6
:102B3000A4FD41EC190B53EC1A2B51EC180BFDF7CB
:102B4000C3FB53EC1B2BFDF7BFFB53EC192BFDF71D
:102B500091FD9DED000B41EC180B53EC1A2B51EC41
:102B6000100BFDF7B1FB9FED249B53EC192BFDF7E8
:102B700084FD41EC100B51EC180B53EC102BFDF7BE
:102B800079FD53EC192BFDF778FD41EC100B002D6E
:102B90003FF7C5AE51EC100B81F0004141EC100B3A
:102BA000BDE60000000000000000F03F0000000053
:102BB000075C143326A6913C182D4454FB21F93FA1
:102BC0000000F07F0000E03F000000000000F03F48
:102BD000F821000006220000000000000000E03F95
:102BE0004A210000582100003333EF3F000000006D
:102BF0000000000000000040182D4454FB21E93F74
:102C000070B59B482DED020B2DED068B079D25F031
:102C10000044A04218DC9748844202DC0AD106989E
:102C200040B19DED060BBDEC068B02B0BDE87040D7
:102C300000F0C6BA002DCCBF9FED8F0B9FED900B1F
:102C4000BDEC068B02B070BD8F48A04215DD8F48E9
:102C5000A042D8BF4FF0FF3458DD9DED060B51EC7C
:102C6000100BFFF705FE042808BF00F0CDFA9DED1C
:102C7000060BBDEC068B02B070BD9DED060B51EC52
:102C8000100B00F07FFCCDE9060181489FED828B9F
:102C9000A0423CDD8248A0421FDD00249FED82ABB4
:102CA0009DED060B53EC1A2B51EC100BFDF741FC7C
:102CB0009DED060B41EC190B53EC1A2B51EC100B4C
:102CC000FDF702FB53EC182BFDF7D4FC53EC192B4A
:102CD000FDF7D6FCCDE9060149E09DED060B012488
:102CE00053EC182B51EC100BFDF723FC9DED060B5C
:102CF00041EC190B53EC182B51EC100BFDF7BAFCFF
:102D000053EC192BFDF7BCFCCDE906012FE0684818
:102D1000A0421FDD02249FED689B9DED060B53EC46
:102D2000192B51EC100BFDF7CFFA53EC182BFDF7D4
:102D300000FC9DED060B41EC180B53EC192B51ECEC
:102D4000100BFDF797FC53EC182BFDF799FCCDE920
:102D500006010CE09DED060B032453EC102B9FEDB8
:102D6000580B51EC100BFDF78BFCCDE906019DEDE6
:102D7000060B53EC102B51EC100BFDF7A5FA41ECB0
:102D8000180B53EC182BFDF79FFA41EC190B4E482A
:102D90000621B0EE490AF0EE690A784400F094F991
:102DA00053EC182B51EC100BFDF78EFA41EC180B7D
:102DB0004648B0EE490AF0EE690A0521784400F071
:102DC00083F953EC192B51EC100BFDF77DFA41EC14
:102DD000100B51EC180B53EC102B002C0EDAFDF7F6
:102DE000A8FB9DED061B53EC112BFDF76DFA9DED35
:102DF000061B53EC112BFDF740FC35E0FDF799FB6A
:102E00009DED061B53EC112BFDF75EFA41EC100B08
:102E10002F48784400EBC40090ED001B51EC100BE0
:102E200053EC112BFDF726FC9DED061B53EC112BEB
:102E3000FDF720FC41EC100B2648784400EBC40061
:102E400090ED001B51EC100B53EC112BFDF715FC12
:102E500041EC100B002DA2BFBDEC068B02B070BD83
:102E600051EC100B81F0004141EC100B01E7000028
:102E7000000010440000F07F182D4454FB21F93F5E
:102E8000182D4454FB21F9BF0000DC3F0000203E18
:102E90000000F33F00000000000000000000F03FD1
:102EA0000000E63F000000000000000000000040BD
:102EB0000080034000000000000000000000F83F18
:102EC000000000000000F0BF9A1E0000501E00002D
:102ED000DA1D0000921D000070B56B4E2DED040B45
:102EE0002DED028B82B0DDF81CC0DDE905235C42CC
:102EF0002CF000411C4341EAD474049D22F00040B0
:102F0000B44205D86C422C4340EAD474B4420BD985
:102F10009DED061B9DED040B02B0BDEC028B04B0D1
:102F2000BDE8704000F056B9ACF14054A4F17F64A4
:102F30001C430BD0022404EAAC7444EAD274054367
:102F40009FED538B9FED542B07D015E09DED040BA7
:102F500051EC100B00F07EF942E0002C11BF012C67
:102F60009DED040B02B0BDEC028B04BF04B070BD3C
:102F7000022C38D0032C3BD00B439FED491B9FED17
:102F80004A0B0AD0B14218D1B04209D121F0804198
:102F900020F08040079105900FE0002A15DA10E03C
:102FA000434B7B44002C08BF93ED000B0DD0012C4C
:102FB00010D0022C17D0032C1AD0B0421DD1002AF9
:102FC00003DAB0EE410AF0EE610A02B0BDEC028B0A
:102FD00004B070BD93ED000B51EC100B81F000417B
:102FE00041EC100BF1E7B0EE480AF0EE680AECE7AE
:102FF000B0EE420AF0EE620AE7E7401A00153C28FC
:10300000C8BF8DED000B19DCBCF1000FBEBF10F185
:103010003C0F9FED290B8DED000B0FDB9DED060B9B
:1030200053EC102B9DED040B51EC100BFDF728FB1E
:1030300000F0A8FA00F00EF9CDE90001002C08BF5D
:103040009DED000BC1D0012C10D0022C9FED1C0B6C
:1030500053EC102B9DED000B51EC100B0DD0FDF738
:1030600009FB53EC182BFDF705FBB9E7019880F03D
:10307000004001909DED000BA7E7FDF7FBFA53EC34
:10308000182BFDF7FAFAABE70000F07F0000000014
:10309000182D4454FB210940182D4454FB2109C02C
:1030A000182D4454FB21F9BF182D4454FB21F93F3E
:1030B000C21C000000000000000000000000000032
:1030C000075C143326A6A13C70B504462DED028B97
:1030D0004D1E00EBC500B0EE408AF0EE608A90ED28
:1030E000000B35F0060017D053EC182B51EC100BE9
:1030F000FDF7EAF841EC100B6D1E04EBC50090EDF6
:10310000001B51EC100B53EC112BFDF712FA41ECA4
:10311000100B35F00600E7D1022D36D0042D1CD05F
:10312000062D1CBFBDEC028B70BD53EC182B51EC6F
:10313000100BFDF7C9F894ED0A1B53EC112BFDF7AA
:10314000F8F953EC182BFDF7BFF894ED081B53EC7E
:10315000112BFDF7EEF941EC100B53EC182B51EC51
:10316000100BFDF7B1F894ED061B53EC112BFDF796
:10317000E0F953EC182BFDF7A7F894ED040B53EC92
:10318000102BFDF7D6F941EC100B53EC182B51EC3A
:10319000100BFDF799F894ED021B53EC112BFDF782
:1031A000C8F953EC182BFDF78FF894ED001B53EC86
:1031B000112BFDF7BEF9BDEC028B41EC100B70BD7D
:1031C00010B553EC102B51EC100BFDF7B2F941EC9C
:1031D000100B10BD10B553EC112B51EC100BFDF77B
:1031E000A8F941EC100B10BD9FED050B10B553EC89
:1031F000102B51EC100BFDF743FA41EC100B10BDF6
:1032000000000000000000009FED050B10B553EC1E
:10321000102B51EC100BFDF757F841EC100B10BDC3
:10322000000000000000001002E008C8121F08C1E2
:10323000002AFAD170477047002001E001C1121F37
:10324000002AFBD170470000014908607047000068
:103250009001002010B541EC100BFFF7D1FC51ECB0
:10326000100B10BD002800DC002040F2E73188423E
:1032700000DB084670470000F0B587B006460D46F3
:10328000144696ED000A8DED040A96ED010A8DEDC7
:10329000050A96ED020A8DED060A94ED010ADFEDAE
:1032A000AA0A30EE600AF2EE080A80EE201A8DEDCE
:1032B000011A94ED030ADFEDA40A30EE600AF2EE83
:1032C000080A80EE201A8DED021A94ED040ADFED53
:1032D0009E0A30EEC00AF2EE080A80EE201A8DED4A
:1032E000031A9DED010A9948D0ED000A30EE200A3C
:1032F0008DED010A9DED020A9548D0ED000A30EEF1
:10330000200A8DED020A95ED000A924880ED040A2C
:1033100095ED010A80ED050A9DED041AF0EE410AD3
:103320009DED011AB0EE410A8B48FEF74FFC9DED72
:10333000051AF0EE410A9DED021AB0EE410A8748E7
:10334000FEF744FC95ED001AF0EE410A824890ED3C
:103350000D1AB0EE410A8248FEF738FC95ED011ACD
:10336000F0EE410A7D4890ED0D1AB0EE410A7D481D
:10337000FEF72CFC9DED031A7B48D0ED001A21EEE0
:10338000211AB0EE410A95ED021AF0EE410A774893
:10339000FEF71CFC734890ED0A0A6E4880ED060AA1
:1033A000704890ED0B0A6B4880ED070A6D4890ED70
:1033B0000D0A684880ED080A94ED020ADFED6C0AF8
:1033C000B4EEE00AF1EE10FA60DD94ED020A644812
:1033D000D0ED0D0A30EE600A6248D0ED0D0A30EEF5
:1033E000600A6248D0ED0D0A30EE600ABDEEC00AF8
:1033F00010EE100A00B25F49088094ED020A5848A6
:10340000D0ED0D0A30EE200A5648D0ED0D0A30EE10
:10341000600A5648D0ED0D0A30EE200ABDEEC00A13
:1034200010EE100A00B25449088094ED020A4C488C
:10343000D0ED0D0A30EE600A4A48D0ED0D0A30EEAC
:10344000200A4A48D0ED0D0A30EE200ABDEEC00A2F
:1034500010EE100A00B24949088094ED020A404873
:10346000D0ED0D0A30EE200A3E48D0ED0D0A30EEC8
:10347000200A3E48D0ED0D0A30EE600ABDEEC00ACB
:1034800010EE100A00B23E49088008E000203949D9
:103490000880394908803949088039490880354809
:1034A000B0F90000FFF7DEFE324908803248B0F97B
:1034B0000000FFF7D7FE304908803048B0F900001F
:1034C000FFF7D0FE2D4908802D48B0F90000FFF726
:1034D000C9FE2B4908802748B0F9000000EE100A09
:1034E000B8EEC00A1B4880ED000A2348B0F900007E
:1034F00000EE100AB8EEC00A164880ED010A1F4817
:10350000B0F9000000EE100AB8EEC00A114880EDD4
:10351000020A0846B0F9000000EE100AB8EEC00A30
:103520000C4880ED030A0F463F88BBB2134F3F881B
:10353000BAB2114F3F88B9B20E4F3F88B8B2FEF70A
:10354000D9FF07B0F0BD00000080BB44000100209F
:1035500004010020940100201C2F0120542F012081
:10356000C42F0120FC2F01208C2F0120343001209A
:1035700000003443080100200A0100200C01002053
:103580000E01002082B0CDE9000121F00040019041
:103590009DED000B02B051EC100B70471CB50446BA
:1035A000FDF7FEFEFDF738FEFEF718FF00201B4971
:1035B000087048701A490870FEF7B0F9FEF74AFA29
:1035C000FEF794FBFEF786FD45F25550FDF712FE1F
:1035D0000420FDF703FEFA20FDF706FEFDF7F6FDD9
:1035E00000F0D6FD0F48032100234FF40072CDE90F
:1035F00000100DA10F4801F07DF80F4802210023B3
:103600000A02CDE900100DA10F4801F073F800F097
:10361000E9FD002000F0A6FE1CBD00001402002001
:1036200029010020300100207461736B5F706964B0
:1036300000000000ED3F0008340100207461736B4E
:103640005F6E726600000000953F0008F0EE400AD1
:10365000F6EE001A60EEA11AB0EE611AB0EE600A42
:1036600010EE100A0749A1EB600000EE100A21EEEF
:10367000002AF7EE081A42EE401A61EE801AB0EE08
:10368000610A7047865A375F1CB5FDF72BF900BFFA
:10369000FEF71CFE0E48006840F470000C490860FC
:1036A0004FF44070FEF788FA00200A4908800A4962
:1036B00008800A4804210023CA01CDE9001008A1AE
:1036C0000A4801F017F800F0D7FE00E000BFFDE760
:1036D00088ED00E0240100202601002038010020B0
:1036E000696E69745F7461736B0000009D3500083A
:1036F00010B5134C247B0470114C647B4470104C47
:10370000A47B84700E4CE47BC4700D4C247C0C7044
:103710000B4C647C4C700A4CA47C8C70084CE47C90
:10372000CC70074C247D1470054C647D5470044C9F
:10373000A47D9470024CE47DD470014C237E10BDB6
:10374000340200202DE9F04705460E462948076857
:103750002948D0F800802948D0F80090284800680F
:10376000001D00F0CBFC50B92548006890F82C10E3
:103770000120884023490968814322480160681C70
:10378000E0B9DEB100BF204948681D49096888607A
:103790001B4982680968CA6019490968091D82685D
:1037A000516017490968091D8160174A1449096861
:1037B0004A6111460968491C116018E07C191048DB
:1037C00000684460BC4206D20D480168091D4846A5
:1037D00000F0B8FC0BE00A480168091D404600F003
:1037E000B1FC0A480068844201D208480460BDE880
:1037F000F08700006C0000205C00002060000020CA
:1038000058000020700000200803002088000020DD
:1038100010B5044600F0BCFC32480068401C314939
:1038200008603148006840B92F48046008460068C5
:1038300001280DD100F09CF90AE02C48006838B945
:1038400029480068C06AE16A884201D826480460B5
:1038500027480068401C2649086000BF94F82C10D7
:10386000012088402349096808432249086000BFB5
:10387000E16A01EB8101204A02EB81014868A06006
:103880008268E260211D826851608160E16A01EB1B
:103890008101194A02EB81026261E16A01EB810157
:1038A000154A52F82110491CE26A02EB8202124BBF
:1038B00043F8221000BF00BF00F094FC0B480068E2
:1038C00078B100BF08480068C06AE16A884207D240
:1038D0004FF0805009490860BFF34F8FBFF36F8FDF
:1038E00000BF10BD680000205800002074000020B8
:1038F00084000020700000205402002004ED00E04D
:1039000010B516E000F044FC0C48C068C468201DE7
:1039100000F0F4FB0A480068401E094908600948A5
:103920000068401E0749086000F05CFC204600F07B
:103930006CF8044800680028E4D110BDF4020020AF
:103940006800002064000020F0B587B00126002741
:10395000002408E012A0005D03A9085503A8005D3B
:1039600000B902E0641C102CF4DB00BF002510E05D
:103970000D4F0E4800EB850000210B468022CDE95B
:10398000001003A9384600F0B5FE064606B902E06D
:103990006D1C012DECDB00BF304607B0F0BD000010
:1039A00049444C4500000000893A00088C00002082
:1039B0002DE9FF5F0746884616469946DDE90EABBE
:1039C000B00000F091F9054675B14C2000F08CF97B
:1039D00004462CB14C212046FCF76BFC256304E027
:1039E000284600F01DFC00E0002454B100204B46A6
:1039F00032464146CDE900ABCDE90240384600F001
:103A000057F8204604B0BDE8F09F10B50446206B7F
:103A100000F006FC204600F003FC10BD30B54FF46A
:103A20009633144800F007042CB1C01D20F00700A5
:103A3000104C041B1B1B104C206000240E4D6C60AE
:103A4000C218083A22F007020C4C226000240B4DE9
:103A50002D686C60094D2D682C600146541A4C602D
:103A6000064C24680C60064D4C682C60054D4C6873
:103A70002C6030BD1C030020A4000020AC000020FE
:103A8000B4000020B000002000BFFFF739FF064857
:103A900000680128F9D94FF0805004490860BFF34D
:103AA0004F8FBFF36F8FF0E75402002004ED00E06A
:103AB0002DE9FF5F81460E469246DDE90E7B109CA4
:103AC000AAF10100216B01EB800828F0070808F03B
:103AD000070008B9012000E0002050B900BF5020C5
:103AE00080F31188BFF34F8FBFF36F8F00BF00BF0C
:103AF000FEE77EB1002507E0715D04F13400415519
:103B0000705D00B902E06D1C102DF5D300BF0021DF
:103B100043200155052F01D2012000E0002050B9BB
:103B200000BF502080F31188BFF34F8FBFF36F8F1A
:103B300000BF00BFFEE7052F00D30427E762201D6A
:103B400000F0FDFA04F1180000F0F9FA2461C7F161
:103B50000500A061646249464046039A00F0C0F93E
:103B60002060BBF1000F01D0CBF80040BDE8FF9F03
:103B700010B5002407E004EB84010F4A02EB81003A
:103B800000F0D0FA641C052CF5D30C4800F0CAFAFA
:103B90000B4800F0C7FA0B4800F0C4FA0A4800F0DE
:103BA000C1FA0A4800F0BEFA04480949086004480E
:103BB0000849086010BD000054020020B80200202F
:103BC000CC020020E0020020F402002008030020C4
:103BD0005C0000206000002010B50146224800E093
:103BE000006803688B42FBD31F4B984214D01F4BD5
:103BF000984204D31E4B984201D8012300E00023D1
:103C000053B900BF502383F31188BFF34F8FBFF325
:103C10006F8F00BF00BFFEE70246436813448B422C
:103C200004D143684C682344436001460A464B680C
:103C300013440468A34211D10E4C03682468A342C4
:103C400008D04B680468646823444B6003681B68B1
:103C50000B6005E0074B1B680B6001E003680B601D
:103C6000884200D0016010BDA40000201C03002089
:103C70001B2F0120AC00002009480068006808B92B
:103C8000012000E0002020B14FF0FF30054908601E
:103C900005E003480068C068006802490860704792
:103CA0005C000020880000200E480068401C08B915
:103CB000012000E0002050B900BF502080F311889F
:103CC000BFF34F8FBFF36F8F00BF00BFFEE700BF92
:103CD000502080F31188BFF34F8FBFF36F8F00BF69
:103CE00000BFFEE7980000202DE9F04705464FF0A1
:103CF0000008DDB115F1090F01D9012000E0002015
:103D000098B9083505F0070080B105F00700C0F14B
:103D10000809C9F1FF30A84201D2012000E00020CB
:103D200008B94D4402E0002500E0002500F0DCFB6E
:103D30006448006808B9FFF771FE012000EBE570E8
:103D4000002877D0002DFCD05F480068854271D8EC
:103D50005E4E304604685E48844204D35D48844227
:103D600001D8012000E0002050B900BF502080F3AE
:103D70001188BFF34F8FBFF36F8F00BF00BFFEE707
:103D800016E0264624685248844204D351488442AF
:103D900001D8012000E0002050B900BF502080F37E
:103DA0001188BFF34F8FBFF36F8F00BF00BFFEE7D7
:103DB0006068A84202D220680028E2D14148006829
:103DC000844267D0306800F108084148804504D338
:103DD0004048804501D8012000E0002050B900BFD4
:103DE000502080F31188BFF34F8FBFF36F8F00BF58
:103DF00000BFFEE7206830606068A84201D2012061
:103E000000E0002080F0010050B900BF502080F396
:103E10001188BFF34F8FBFF36F8F00BF00BFFEE766
:103E20006068401B10281AD9671907F0070010B9FD
:103E3000012001E02EE0002050B900BF502080F3A7
:103E40001188BFF34F8FBFF36F8F00BF00BFFEE736
:103E50006068401B786065603068386037601A4978
:103E600060680968081A18490860084600681A4915
:103E70000968884203D214480068174908606068DE
:103E800040F0004060600020206014480068401C42
:103E90001249086000F0A2FD08F0070008B90120EF
:103EA00000E0002050B900BF502080F31188BFF31C
:103EB0004F8FBFF36F8F00BF00BFFEE74046BDE8E6
:103EC000F0870000AC000020B0000020A40000201B
:103ED0001C0300201B2F0120B4000020B80000208C
:103EE000001F4FF080730360001F21F00103036087
:103EF000001F054B036014380260001F6FF00203BF
:103F00000360203870470000A93C000810B5044643
:103F100022464FF480510248FCF794FD10BD00008A
:103F20000004024000B52DED048B83B041EC190B69
:103F3000FCF759FC41EC180B18EE100A18EE901A19
:103F40008DED008B002818BF0120084320F00040B1
:103F5000C0F17F6000F1E040C00F14D019EE101ADC
:103F600019EE900A8DED009B002918BF012108432E
:103F700020F00040C0F17F6000F1E040C00F04BFBE
:103F80000120FFF761F951EC180B03B0BDEC048B75
:103F900000BD000020E0FDF7BDFB012814D100208A
:103FA0000E4908800E4840780F280DD1FDF7A2FD7C
:103FB0000C480078401C0B490870FDF717FC0020E6
:103FC00007494870FDF746FD07480088401C064930
:103FD0000880022000F098F9DDE700002C010020A5
:103FE00034020020290100202401002008B500BF70
:103FF00000F008FC009070E0FDF7E8F83748008812
:10400000401C3649088008460088B0F5FA7F08DD74
:1040100000231A4619461846FEF76CFA0F2030495D
:10402000087530493048FCF755FD2F4890ED000ADF
:10403000DFED2E0AB4EEE00AF1EE10FA1ADC90ED94
:10404000000ADFED2B0AB4EEE00AF1EE10FA11D30C
:1040500090ED010ADFED250AB4EEE00AF1EE10FA68
:1040600008DC90ED010ADFED220AB4EEE00AF1EE81
:1040700010FA0BD200231A4619461846FEF73AFAF0
:104080000F201749087501201A4908701448007D4F
:104090000A2808D11748007828B9114A114912484E
:1040A000FFF7EAF80EE00E48007D0F280AD1002045
:1040B0001049087000231A4619461846FEF71AFAE6
:1040C000FDF794FB0C480088401C0B49088000BF9A
:1040D0000221684600F02AFB00BF8DE72C0100207A
:1040E000DC300120F4300120003101200000344296
:1040F000000034C2280100202601002001460A6980
:10410000D1E901309860D1E90103586050688842D4
:1041100001D188685060002008611068401E10605E
:104120001068704700F1080141604FF0FF31816075
:1041300000F10801C16001610021016070470021A8
:104140000161704710B502460B685C1C0CB9106920
:1041500007E002F1080000E04068446824689C42DF
:10416000FAD944684C604C68A160886041600A617B
:104170001468641C146010BD42684A6093688B60C8
:10418000936859609160086103685B1C0360704725
:1041900000BF502080F31188BFF34F8FBFF36F8FA4
:1041A00000BF0E480068401C0C49086008460068C3
:1041B000012812D10A480068C0B208B9012000E005
:1041C000002050B900BF502080F31188BFF34F8FFB
:1041D000BFF36F8F00BF00BFFEE77047980000205D
:1041E00004ED00E00D48006850B900BF502080F396
:1041F0001188BFF34F8FBFF36F8F00BF00BFFEE783
:1042000006480068401E054908600846006820B955
:10421000002080F3118800BF00BF70479800002085
:1042200070B506463546002E50D0083D2C4628482D
:10423000844204D32748844201D8012000E00020B2
:1042400050B900BF502080F31188BFF34F8FBFF3E8
:104250006F8F00BF00BFFEE76068C00F50B900BF9E
:10426000502080F31188BFF34F8FBFF36F8F00BFD3
:1042700000BFFEE7206808B9012000E0002050B927
:1042800000BF502080F31188BFF34F8FBFF36F8FB3
:1042900000BF00BFFEE76068C00FB8B12068A8B9D2
:1042A000606820F00040606000F01EF90A49606814
:1042B00009680844084908602046FFF78DFC074854
:1042C0000068401C0549086000F088FB70BD0000D4
:1042D0001C0300201B2F0120B0000020BC00002088
:1042E00000204FF0E02108618861064800684FF423
:1042F0007A71B0FBF1F0401E4FF0E02148610720D9
:10430000086170471001002070B504460025D4B143
:1043100000F0EAF811480068012800D100E0002010
:1043200050B900BF502080F31188BFF34F8FBFF307
:104330006F8F00BF00BFFEE700212046FFF702FAA3
:1043400000F04CFB05463DB94FF080500449086031
:10435000BFF34F8FBFF36F8F70BD0000940000203C
:1043600004ED00E02DE9F04105460026FFF710FFBF
:1043700015B93748006800E028460446201DFFF7BD
:10438000BDFE88B900BFE06A00EB8000314951F8FA
:10439000200040B994F82C10012088402E4909686B
:1043A00081432D48016000BFA06A18B104F11800D4
:1043B000FFF7A4FE29480068401C284908602448EB
:1043C0000068844201D1012000E000200746244813
:1043D000006858B157B1211D2248FFF7CDFE224891
:1043E0000068401C20490860012606E01F4800685C
:1043F000401E1E490860FFF73FFCFFF7F3FE012E49
:1044000002D02046FFF701FB15480068E8B11048CC
:104410000068844219D11648006808B9012000E0FC
:10442000002050B900BF502080F31188BFF34F8F98
:10443000BFF36F8F00BF00BFFEE74FF080500D4904
:104440000860BFF34F8FBFF36F8FBDE8F0810000AE
:10445000580000205402002070000020840000203A
:1044600074000020F4020020640000206800002096
:104470009400002004ED00E010B5FFF765FA044653
:10448000012C15D100BF502080F31188BFF34F8F4E
:10449000BFF36F8F00BF4FF0FF300F49086001205E
:1044A0000E49086000200E49086000F06FF810E027
:1044B000601C08B1012000E0002050B900BF50206E
:1044C00080F31188BFF34F8FBFF36F8F00BF00BF22
:1044D000FEE70448006810BD88000020740000203A
:1044E0006C0000209000002002480068401C014938
:1044F00008607047940000201F48006818B1012030
:104500001E49086036E000201C49086000BF1C48B6
:104510000068B0FA80F0C0F11F0101EB8100194A78
:1045200052F8200008B1012000E0002050B900BF7F
:10453000502080F31188BFF34F8FBFF36F8F00BF00
:1045400000BFFEE700BF01EB81020E4B03EB8200D0
:1045500042685268426000F108024368934201D108
:10456000C26842604268D268074B1A6000BF00BF51
:104570001846006870470000940000207C0000206E
:104580007000002054020020580000200EB5524850
:1045900000685249884201D0012000E0002050B953
:1045A00000BF502080F31188BFF34F8FBFF36F8F90
:1045B00000BF00BFFEE7484800684849491E8842DE
:1045C00001D0012000E0002050B900BF502080F34E
:1045D0001188BFF34F8FBFF36F8F00BF00BFFEE79F
:1045E000002001903E49084600780290FF200A46CC
:1045F00010700846007800909DF8000000F0500010
:10460000384A10701046007850B900BF502080F32F
:104610001188BFF34F8FBFF36F8F00BF00BFFEE75E
:104620009DF800205020904308B9012000E00020B0
:1046300050B900BF502080F31188BFF34F8FBFF3F4
:104640006F8F00BF00BFFEE707E00198401C01909C
:104650009DF800004006000E00909DF8000000F05C
:1046600080008028F1D00198082803D100201E4A3C
:10467000106004E00198C0F107001B4A10601A485E
:1046800000680002184A10601046008800F4E060DC
:1046900010609DF80800124A10700F482030006822
:1046A00040F47F000C49203108600846006840F063
:1046B0007F400860FFF714FE00200C490860FBF7FC
:1046C00099FD0B48006840F0404009490860FBF73D
:1046D0007DFD00200EBD000000ED00E071C20F4125
:1046E00000E400E09C000020A000002098000020D2
:1046F00034EF00E02DE9FC5F06460F4690469946F0
:10470000DDE90CAB4B46424639463046CDE900ABBD
:10471000FFF74EF9054625B12846FFF779F8012441
:1047200001E04FF0FF342046BDE8FC9F2DE9F04743
:1047300004460F464FF0000954B900BF502080F3E3
:104740001188BFF34F8FBFF36F8F00BF00BFFEE72D
:104750000FB1012000E0002050B900BF502080F3CD
:104760001188BFF34F8FBFF36F8F00BF00BFFEE70D
:10477000FFF7BAFE2048066820480068012800D1EB
:1047800000E0002050B900BF502080F31188BFF333
:104790004F8FBFF36F8F00BF00BFFEE72068C519C2
:1047A0002068B04207D92068A8420BD9B54209D980
:1047B0004FF0010906E02068A84201D8B54201D9AE
:1047C0004FF001092560B9F1000F03D0A81B0021AB
:1047D000FEF7B8FF00F002F98046B8F1000F07D1EC
:1047E0004FF0805006490860BFF34F8FBFF36F8FC3
:1047F0004846BDE8F08700006C00002094000020CF
:1048000004ED00E001490868704700006C000020DA
:104810002DE9F0414FF000086548006800287DD17F
:1048200064480068451C634805601DBB00BF6248C2
:104830000068006808B9012000E0002050B900BFFE
:10484000502080F31188BFF34F8FBFF36F8F00BFED
:1048500000BFFEE758480768584800685649086096
:104860005648076056480068401C55490860FFF7E5
:1048700003FA00BF5348006885427ED300BF4E480C
:104880000068006808B9012000E0002020B14FF066
:10489000FF304C4908606FE047480068C068C46852
:1048A0006668B54202D24748066065E000BF6069AD
:1048B000D4E902128A60D4E902214A60211D4268CB
:1048C0008A4201D1E1684160002262610168491EAB
:1048D000016000BFA06AA0B100BFA06AD4E90712BE
:1048E0008A60D4E907214A6004F1180142688A42CB
:1048F00001D1216A41600022A2620168491E016063
:1049000000BF00BF94F82C10012088402E49096890
:1049100008432D49086000BFE16A00E03FE001EB79
:1049200081012A4A02EB81014868A0608268E26046
:10493000211D826851608160E16A01EB8101234A97
:1049400002EB81026261E16A01EB81011F4A52F8C8
:104950002110491CE26A02EB82021C4B43F8221030
:1049600000BF00BF1A49E06A0968C96A884286D94F
:104970004FF0010883E700E000BF15480068C06AF7
:1049800000EB8000114951F82000012801D94FF0B7
:1049900001081048006808B14FF0010804E00E4813
:1049A0000068401C0C4908604046BDE8F0810000EA
:1049B000940000206C0000205C00002060000020BB
:1049C0008000002088000020700000205402002099
:1049D000580000207C000020780000202DE9F041E4
:1049E00000240027FFF7D4FB00255B48006808B1CE
:1049F000012000E0002050B900BF502080F3118852
:104A0000BFF34F8FBFF36F8F00BF00BFFEE7524869
:104A10000068401E504908600846006800286ED1B2
:104A20004E48006800286AD064E04D48C068C468F9
:104A300000BFA06AD4E907128A60D4E907214A605E
:104A400004F1180142688A4201D1216A41600022C2
:104A5000A2620168491E016000BF00BF6069D4E91D
:104A600002128A60D4E902214A60211D42688A420A
:104A700001D1E1684160002262610168491E016064
:104A800000BF00BF94F82C10012088403549096808
:104A900008433449086000BFE16A01EB8101324AF2
:104AA00002EB81014868A0608268E260211D826893
:104AB00051608160E16A01EB81012B4A02EB8102C6
:104AC0006261E16A01EB8101274A52F82110491C19
:104AD000E26A02EB8202244B43F8221000BF00BFBF
:104AE0002249E06A0968C96A884203D9012020493D
:104AF00041F825001A48006810B9012001E026E0BD
:104B00000020002891D00CB1FFF7B6F819480668CC
:104B10006EB100BFFFF77CFE18B10120144941F8C7
:104B20002500761E002EF5D100201249086010489D
:104B300050F8250058B1012700BF0C48006838071D
:104B40000D490860BFF34F8FBFF36F8F00BFFFF7B2
:104B500049FB3846BDE8F081940000206800002041
:104B6000E0020020700000205402002058000020C5
:104B70007C0000207800002004ED00E00000000030
:104B8000555555555555C53F7D6FEB0312D6D4BFCE
:104B90005544880E55C1C93F3B8F68B52882A4BFD4
:104BA00088B20175E0EF493F09F7FD0DE13D023F95
:104BB0004B2D8A1C273A03C0C88A599CE52A00401D
:104BC00059018D1B6C06E6BF82922EB1C5B8B33F6A
:104BD0004FBB610567ACDD3F182D4454FB21E93F15
:104BE0009BF681D20B73EF3F182D4454FB21F93F04
:104BF000E2652F227F2B7A3C075C143326A6813C8A
:104C0000BDCBF07A8807703C075C143326A6913C34
:104C1000C4EB98999999C9BF711623FEC671BCBFA0
:104C20006D9A74AFF2B0B3BF9AFDDE522DDEADBF08
:104C30002F6C6A2C44B4A2BF0D5555555555D53F20
:104C4000FF8300922449C23F6E204CC5CD45B73F3B
:104C5000513DD0A0660DB13FEB0D76244B7BA93FB3
:104C600011DA22E33AAD903F00000000000000009E
:104C7000904C000800000020940100008808000803
:104C8000C44C000894010020FC33010038320008B5
:104C9000C145CDCCCC3E9A010401287A22012103E2
:104CA0003AE80372041AAA0101260344803F5A64B9
:104CB000021184E1F50560090102030406070809F1
:044CC00002690F0076
:040000050800019955
:00000001FF
