:020000040800F2
:1000000008080020AD010008551800089D0B0008E5
:1000100081150008590A0008492E00080000000058
:100020000000000000000000000000007D26000825
:100030005D0A0008000000009D2200081D2700083E
:10004000C7010008C7010008C7010008C701000870
:10005000C7010008C7010008C7010008C701000860
:10006000C7010008C7010008C7010008C701000850
:10007000C7010008C7010008C7010008C701000840
:10008000C7010008C7010008C70100080000000000
:10009000000000000000000000000000C701000890
:1000A000C7010008C7010008C7010008C701000810
:1000B000C7010008C701000889280008C701000817
:1000C000C7010008C7010008C7010008C7010008F0
:1000D000C7010008C7010008C701000800000000B0
:1000E000C7010008C7010008C701000800000000A0
:1000F000000000000000000000000000C701000830
:1001000000000000C7010008C7010008C70100087F
:1001100000000000000000000000000000000000DF
:10012000C7010008C7010008C7010008C70100088F
:10013000C7010008000000000000000000000000EF
:10014000000000000000000000000000C7010008DF
:10015000C7010008C7010008C7010008C70100085F
:10016000C7010008C70100080000000000000000EF
:10017000000000000000000000000000000000007F
:1001800000000000C701000800000000000000009F
:10019000C7010008C7010008DFF80CD000F064FABE
:1001A00000480047B93B000808080020064880477F
:1001B00006480047FEE7FEE7FEE7FEE7FEE7FEE74C
:1001C000FEE7FEE7FEE7FEE72127000899010008A9
:1001D0002DE9FE4F81EA030404F0004421F00041C0
:1001E00000944FF0000B23F0004350EA01045ED06E
:1001F00052EA03045BD0C3F30A54C1F30A552C44FA
:10020000A4F2F3340194A0FB0254C1F3130141F4AE
:100210008011C3F3130343F4801301FB024400FB7A
:10022000034E840A970A44EA815447EA8357A4FBA1
:10023000076802958D0A05FB07854FEA932C04FB9E
:100240000C542705029D4FEA065847EA1637B5EBCE
:1002500008056EEB070C870E920E47EA811742EAFB
:100260008312A7FB0201B6EB0B0164EB00042B0D1C
:1002700043EA0C335E1844EB1C50DA465146E7FB68
:100280000201C5F313044FEA0B3343EA14534FEA58
:100290000432019C43EA0603A4F10C040294009C7E
:1002A000CDE900B400F07BF803B0BDE8F08F00208A
:1002B0000146F9E700F0004230F000400AD0C10DDD
:1002C00001F56071C0F3160042EA0151C20840070F
:1002D0001143704700200146704701F0004330B4DD
:1002E00021F0004150EA010206D00A0DA2F5607229
:1002F000C1F31301002A02DC30BC00207047440F18
:1003000044EAC104C100E01830BC00EBC250AFF3B6
:1003100000800029A8BF7047401C490008BF20F09A
:100320000100704710B4B0FA80FC00FA0CF050EAFB
:10033000010404BF10BC704749B1CCF1200421FA7C
:1003400004F411FA0CF118BF012121430843A3EB77
:100350000C01CB1D4FEA00614FEA102042BF002084
:1003600010BC704700EBC35010440029A4BF10BC60
:100370007047401C490008BF20F0010010BC7047C6
:1003800010B5141E73F1000408DA401C41F100019D
:1003900092185B411A4301D120F0010010BD2DE9F4
:1003A000F04D92469B4611B1B1FA81F202E0B0FAEB
:1003B00080F22032904600F069F904460F4640EA88
:1003C0000A0041EA0B0153465A46084313D011462E
:1003D00053EA010019D0C8F14002504600F065F917
:1003E00005460E4650465946424600F04FF908432E
:1003F00005D0012004E020463946BDE8F08D0020FC
:10040000054346EAE0762C4337430A986305E40A3D
:10041000A0EB08000022FD0A44EA47540A3002D546
:1004200000200146E9E7010510196941DDE90845A9
:1004300000196941BDE8F04DA2E72DE9FE4F804665
:1004400081EA0300C00F0C46009021F0004123F028
:100450000045B8EB0200A94105D24046214690462E
:100460001C460B46024623F00040104347D0270DA0
:10047000C7F30A00C3F30A510290401A01904028C2
:100480006BDAC3F3130040F4801B0098924620B14E
:100490000023D2EB030A63EB0B0B01985946C0F122
:1004A0004002504600F0F2F806460D4650465946C6
:1004B000019A00F00AF910EB08006141002487EA74
:1004C000115284EAE7731A4340D0009A62B3019A4A
:1004D000012A4FEA075215DC001B61EB02014FF0C5
:1004E000004202EA0752CDE90042001C41F58011AA
:1004F00032462B46FFF753FF03B0BDE8F08F40466E
:100500002146F9E7001B61EB0201001C41F5801355
:1005100000185B412018A2F5001747EB030140EAE1
:10052000D570B6196D4111E06D084FEA360645EAFF
:10053000C0754FEA0752001B61EB0201001C41F538
:10054000801149084FEA30000019514132462B46CC
:1005500003B0BDE8F04FFFF713BF00980122400041
:100560000023D0EB020263EBE073009821464FEAD0
:10057000E074B8EB000061EB0401E9E783F00043AD
:100580005BE781F0004158E72DE9F04D81EA030473
:1005900004F0004B21F0004514464FF0000A23F010
:1005A000004150EA050220D054EA01021DD0C5F3F3
:1005B0000A570246C5F31303C1F31300C1F30A56E9
:1005C00040F4801543F48013A7EB0608101BD646B1
:1005D00008F2FD3873EB050002D308F1010801E0D1
:1005E00092185B41B8F1000F03DA00200146BDE824
:1005F000F08D00204FF48011064684460EE0171B54
:1006000073EB050705D3121B63EB050306434CEAA6
:10061000010C49084FEA300092185B4150EA01078B
:10062000EDD152EA030012D082EA040083EA050108
:10063000084305D0101BAB4106D20122002306E07F
:1006400000224FF0004302E06FF0010253101AEB5A
:1006500006004CEB085110EB0A0041EB0B01BDE822
:10066000F04DFFF78DBE0000064C074D06E0E06838
:1006700040F0010394E8070098471034AC42F6D3E9
:10068000FFF78EFDA03E0008C03E0008202A04DBD4
:10069000203A00FA02F1002070479140C2F1200395
:1006A00020FA03F3194390407047202A04DB203AD4
:1006B00021FA02F00021704721FA02F3D040C2F182
:1006C00020029140084319467047202A06DBCB17C9
:1006D000203A41FA02F043EAE07306E041FA02F3FD
:1006E000D040C2F1200291400843194670472DE9DD
:1006F000F04D00231A461B1A8A4103DB00200146F5
:10070000BDE8F08DC1F30A52C1F3130141F4801525
:100710004FF0000BD10702D100186D41521E002787
:10072000044640F2FF11384601EB620A3E4680461D
:10073000024600204FF48011FFF7B7FFC219714144
:10074000BB1846EB0100B4EB030C75EB000C04D3B3
:10075000E41A65EB000517460E46241908F101005E
:100760006D4180463428E3DDF91946EB0600091B8C
:10077000A84103D24FF0FF32134601E00022134696
:100780001BEB070046EB0A51BDE8F04DFFF7F8BD43
:1007900000B58DB00121084601F082FD012108025B
:1007A00001F0AEFD01200B9003208DF830000020F9
:1007B0008DF833000BA9174800F074F9002007905A
:1007C0004FF480300890002009900A9007A800F0AC
:1007D00043F8002001908DF8080001208DF80900F1
:1007E00000200390059001208DF8180001A90A4807
:1007F00000F058F8062301220021074800F07CF899
:100800000121054800F01CF8034800F0D1F80DB0B4
:1008100000BD0000000002400020014010B5074864
:1008200000F0C6F800BF0221044800F031F80028AB
:10083000F9D0024800F028F810BD00000020014067
:1008400021B1826842F00102826003E0826822F0F6
:1008500001028260704700000021084A1168084ABE
:100860001140D0E900231A4383681A43C3681A432E
:100870001143044AC2F804137047000004230140E6
:10088000E030FCFF002001400146C86C80B2704798
:100890000246002013680B400BB1012000E000204D
:1008A0007047000030B50246002000235068104C0D
:1008B00020400D790C6844EA05242043506090687C
:1008C0000C4C2040D1E903542C438D682C434D79C6
:1008D00044EA450420439060D06A20F470000C7D07
:1008E000641EE4B2234340EA0350D06230BD0000EE
:1008F000FFFEFFFCFDF7FFC0F0B504460D460020EB
:100900000021092D11DDE068A5F10A0606EB460776
:10091000072606FA07F18843A5F10A0606EB460604
:1009200003FA06F10843E0600CE0206905EB450797
:10093000072606FA07F1884305EB450603FA06F198
:1009400008432061072A0FDA606B561E06EB860704
:100950001F2606FA07F18843561E06EB860605FA9F
:1009600006F10843606322E00D2A0FDA206BD61FE0
:1009700006EB86071F2606FA07F18843D61F06EB0B
:10098000860605FA06F10843206310E0E06AA2F14A
:100990000D0606EB86071F2606FA07F18843A2F12B
:1009A0000D0606EB860605FA06F10843E062F0BD87
:1009B000816841F08041816070470000DFED110ADD
:1009C000B4EEE00AF1EE10FA01DB64207047DFEDCF
:1009D0000E0AB4EEE00AF1EE10FA01D80020F5E7B5
:1009E000DFED090A70EE600A9FED081A60EE810AD9
:1009F0009FED071AC0EE811AFCEEE10A10EE900A94
:100A0000C0B2E3E766668640333353400000C84215
:100A10006466663F10B52DED048BFFF7FFFE08EE10
:100A2000100AB8EE480ADFED0A0A20EE200ADFEDD0
:100A3000090A80EE201AF0EE418AB0EE000A28EE94
:100A4000800AB0EE409AB0EE490ABDEC048B10BDAE
:100A50003333534000F07F4500BFFEE7704700B5D9
:100A6000034603E04FF47A7000F005F8181EA3F176
:100A70000103F7D100BD00EBC001C9004FF0E02237
:100A80005161002191610521116100BF4FF0E0210A
:100A9000096901F480310029F8D004214FF0E022E7
:100AA00011617047F0B50A4600210023002400BF01
:100AB0003DE0012505FA01F3156805EA03049C42AF
:100AC00034D105684F000326BE40B5430560157953
:100AD0004E00B5400668354305601579012D02D0FA
:100AE0001579022D16D185684F000326BE40B54307
:100AF000856055794E00B540866835438560456808
:100B000001268E40B5434560456896798E40B6B261
:100B100035434560C5684F000326BE40B543C560F8
:100B2000D5794E00B540C6683543C560491C1029CB
:100B3000BFD3F0BDF0B5002300244D07ED0E02FA3F
:100B400005F3CE1000F1200555F826504E07F70E9C
:100B50000F26BE40B543CF1000F1200646F82750BF
:100B6000CE1000F1200555F8265045EA0304CE10BA
:100B700000F1200545F82640F0BD0246002013692B
:100B80000B400BB1012000E00020704781617047ED
:100B90000AB1816101E00B048361704700BFFEE789
:100BA00010B50220FFF767FF80210448FFF7E5FF3B
:100BB00004460220FFF75FFF204610BD00040240FC
:100BC00010B50446224640210348FFF7E1FF02200A
:100BD000FFF751FF10BD00000004024010B50446AD
:100BE000224680210348FFF7D3FF0220FFF743FF8F
:100BF00010BD00000004024030B52DED108B95B003
:100C000004460D46FC48FD49FD4BFE4ACDE9001067
:100C1000FD49FE4800F00CFC9FEDFD0A8DED130A26
:100C20009FEDFB0A8DED120A9FEDF90A8DED110A79
:100C30009FEDF81AF548B0F9000000EE100AF8EE42
:100C4000C00AF54890ED000A00F074FBF24880ED10
:100C5000000A9FEDF01AEC48B0F9000000EE100A0F
:100C6000F8EEC00AED4890ED000A00F063FBEB4897
:100C700080ED000A9FEDE71AE248B0F9000000EEAF
:100C8000100AF8EEC00AE64890ED000A00F052FBA8
:100C9000E34880ED000AE04890ED000AE14880ED6D
:100CA000090ADE4890ED000ADE4880ED0A0ADA48BB
:100CB00090ED000ADC48D0ED000A30EE600AF0EE5C
:100CC000409AD64890ED000AD848D0ED000A30EEA0
:100CD000600AB0EE408AD24890ED000AF0EE408AF9
:100CE000C748B0F9000000EE100AB8EEC00AD048BC
:100CF000D0ED000A70EE600A9FEDCE1A80EE810AF8
:100D00008DED130ADFEDCC0A20EE200AB0EE40AAEA
:100D1000BA48B0F9000000EE100AB8EEC00AC748A1
:100D2000D0ED000A70EE600A9FEDC21A80EE810AD3
:100D30008DED120ADFEDC00A20EE200AF0EE40AA87
:100D4000AD48B0F9000000EE100AB8EEC00ABC4889
:100D5000D0ED000A70EE600A9FEDB61A80EE810AAF
:100D60008DED110ADFEDB40A20EE200AB0EE40BA94
:100D70009FEDB41ADDED130AB34890ED000A00F0C0
:100D8000D9FAB14880ED000A9FEDAE1ADDED120AE6
:100D9000AE4890ED000A00F0CDFAAC4880ED000AB4
:100DA0009FEDA81ADDED110AA94890ED000A00F0A8
:100DB000C1FAA74880ED000AA34890ED000A85ED2E
:100DC000000AA24890ED000A85ED010AA04890EDC6
:100DD000000A85ED020A9F4890ED000A20EE000A05
:100DE000F0EE40EA90ED000A9B48D0ED000A20EEBC
:100DF000200A8DED100A974890ED000A9748D0ED33
:100E0000000A20EE200A8DED0F0A924890ED000AAC
:100E10009348D0ED000A20EE200A8DED0E0A8E4890
:100E200090ED000A20EE000AB0EE40FA90ED000AC4
:100E30008A48D0ED000A20EE200A8DED0D0A864882
:100E400090ED000A8648D0ED000A20EE200A8DEDD4
:100E50000C0A824890ED000A20EE000AF0EE40FAFB
:100E600090ED000A7E48D0ED000A20EE200A8DEDBC
:100E70000B0A90ED000A20EE000A8DED0A0A29EE19
:100E8000A90A08EE080A08EEA80ADFED760AB4EE11
:100E9000E00AF1EE10FA03D215B0BDEC108B30BDB4
:100EA00069EEA90A48EE080A48EEA80AB0EE600A00
:100EB00002F064FEB0EE409A29EE890AF0EE409A04
:100EC00028EE090AB0EE408A28EE890AF0EE408A40
:100ED0009DED0C0ADDED0F0A30EE600AF0EE000A1F
:100EE00060EE20BA9DED100ADDED0B0A30EE200A0F
:100EF000F0EE000A20EE20CA3EEECF0A70EE6F0A36
:100F00009DED0A0A70EE80CA28EE2C0AB0EE40DA97
:100F100008EECCDA28EEAB0AF0EE40DA49EEECDA75
:100F200029EE8C0AB0EE40EA08EE6BEA4E4890EDEE
:100F3000000ADFED4E0A0DEE200A80ED000A4C4853
:100F400090ED000ADFED490A0DEEA00A80ED000ADF
:100F5000484890ED000ADFED450A0EEE200A80EDCC
:100F6000000AF7EE080AB0EE4A0A00EE8D0A3E4883
:100F7000D0ED000A30EE200AB0EE40AAF7EE080AE3
:100F8000B0EE6A0A00EEAD0A3948D0ED000A30EE44
:100F9000200AF0EE40AAF7EE080AB0EE4B0A00EE87
:100FA0008E0A3448D0ED000A30EE200AB0EE40BA86
:100FB000294890ED000AB1EE400A20EE0A0A2748BF
:100FC000D0ED000A00EEEA0A2548D0ED000A00EE56
:100FD000CB0A2048D0ED000A9FED271A40EE010A07
:100FE000C0ED000A90ED000A20EE0A0A1B48D0ED81
:100FF000000A00EE8B0A41E08A00002088000020F1
:101000008600002084000020820000208000002054
:1010100000000000CDCCCC3E8C00002090000020D1
:1010200094000020580100205000002054000020AF
:10103000440000203333834139FA8E3C48000020BD
:101040004C0000206666663F740000207800002097
:101050007C000020580000205C0000206000002080
:101060006400002017B7D138680000200AD7A33BDE
:101070006C000020700000206F12833A9648D0ED7B
:10108000000A00EEEA0A9548D0ED000A1FED061AA4
:1010900040EE010AC0ED000A914890ED000A20EEF2
:1010A0002A0A8E48D0ED000A00EECB0A8A48D0ED1D
:1010B000000A00EE8A0A8B48D0ED000A1FED121AD2
:1010C00040EE010AC0ED000A854890ED000A20EECE
:1010D0000B0A8248D0ED000A00EEAA0A8148D0ED42
:1010E000000A00EECA0A7C48D0ED000A1FED1E1A65
:1010F00040EE010AC0ED000A7948D0ED000A60EE2A
:10110000A00A764890ED001AD0ED001A41EE210AAF
:10111000744890ED001AD0ED001A41EE210A6E4895
:1011200090ED001AD0ED001A41EE210AB0EE600AEF
:1011300002F024FDB0EE409A694890ED000A20EEDE
:10114000090A80ED000A654890ED000A20EE090AC0
:1011500080ED000A634890ED000A20EE090A80ED58
:10116000000A5D4890ED000A20EE090A80ED000AB1
:101170003EEE8F0A70EE6F0A9DED0A0A30EEC00A4D
:1011800010EE101A0846FFF795F8CDE904019DED21
:101190000D0ADDED0E0A30EE200AF0EE000A20EE18
:1011A000200A10EE101A0846FFF784F8CDE9020174
:1011B0009DED041B9DED020B02F07EF98DED060BFB
:1011C0009FED490B53EC102B9DED060B51EC100BD2
:1011D000FEF7FEFFCDE908019DED080B51EC100B69
:1011E000FFF77BF8A0609DED0C0ADDED0F0A30EEF5
:1011F000600AF0EE000A20EE200A10EE101A0846EF
:10120000FFF758F8CDE902019DED020B01F038FE21
:101210008DED040B9DED040B51EC100B81F00041A2
:101220009FED310B53EC102BCDE906019DED060B24
:1012300051EC100BFEF7CCFFCDE908019DED080B3A
:1012400051EC100BFFF749F820603EEECF0A70EE2C
:101250006F0A9DED0A0A30EE800A10EE101A084659
:10126000FFF728F8CDE902019DED0B0AF0EE000A28
:1012700020EE200ADDED100AB0EE001A01EE200A81
:1012800010EE101A0846FFF715F8CDE900019DEDA4
:10129000021B9DED000B02F00FF98DED040B9DED8F
:1012A000040B51EC100B81F000419FED0F0B53EC40
:1012B000102BCDE906019DED060B51EC100BFEF74E
:1012C00087FFCDE908019DED080B51EC100BFFF7EE
:1012D00004F8606000BFDFE5640000205C000020CF
:1012E00058000020600000200000006066A64C400E
:1012F0004CF6CC40014908607047000000300040C7
:101300004AF6AA20014908607047000000300040FA
:101310000149486070470000003000400149886082
:10132000704700000030004001490860704700002D
:1013300000300040F0EE401A21EE200AB7EE002AFD
:1013400032EE412A02EE210A704700002DE9F043F7
:1013500089B00024002500260027A046A1461EE0F3
:1013600003A804A905AB06AACDE9001007A908A89F
:1013700000F05EF8BDF914000444BDF91000054406
:10138000BDF90C000644BDF920000744BDF91C005E
:1013900080444FF47A70FFF76EFB09F10109B9F54B
:1013A000FA6FDDDB00EE104AB8EEC00ADFED1A0A74
:1013B00080EE201A194880ED001A00EE105AB8EE9F
:1013C000C00ADFED150A80EE201A154880ED001ADC
:1013D00000EE106AB8EEC00ADFED0F0A80EE201AA8
:1013E000104880ED001A00EE107AB8EEC00ADFED6A
:1013F0000A0A80EE201A0C4880ED001A00EE108ACE
:10140000B8EEC00ADFED040A80EE201A074880ED2E
:10141000001A09B0BDE8F0830000FA44440000203F
:10142000480000204C000020500000205400002004
:101430002DE9F05F06460F4690469946DDE90AAB76
:101440003B2000F067F804463C2000F063F80546B6
:1014500045EA042000B230803D2000F05BF80446ED
:101460003E2000F057F8054645EA042000B23880D7
:101470003F2000F04FF80446402000F04BF80546AE
:1014800045EA042000B2A8F80000432000F042F82A
:101490000446442000F03EF8054645EA042000B228
:1014A000A9F80000452000F035F80446462000F079
:1014B00031F8054645EA042000B2AAF800004720AA
:1014C00000F028F80446482000F024F8054645EAD4
:1014D000042000B2ABF80000BDE8F09F10B500F0AA
:1014E00051F801216B2000F034F800216C2000F04D
:1014F00030F80921192000F02CF803211A2000F0FF
:1015000028F818211B2000F024F818211C2000F0D6
:1015100020F810BD70B5044600F0D6F8D02000F0D9
:10152000B1F800F061F8204600F0ACF800F05CF88B
:1015300000F0CAF8D12000F0A5F800F055F800F04E
:1015400067F80546012000F083F800F0DBF8284634
:1015500070BD70B505460C4600F0B6F8D02000F01E
:1015600091F800F041F8284600F08CF800F03CF8C3
:10157000204600F087F800F037F800F0C3F870BD9F
:1015800000BFFEE71CB50121022000F089FE01200A
:101590008DF804008DF806004020009001208DF8A1
:1015A000070002208DF8050069460E48FFF77AFA19
:1015B00001208DF804008DF80600802000900120A5
:1015C0008DF8070002208DF8050069460548FFF7F1
:1015D00069FAC0210348FFF7D9FA0A20FFF73FFA5A
:1015E0001CBD00000004024010B50848006820F44B
:1015F0004040064908600120FFF7E2FAFFF7D0FA01
:1016000004460020FFF7DCFA204610BD000402402B
:1016100070B500250D48006820F440400B49086073
:1016200000240EE00120FFF7CBFAFFF7B9FA0128FA
:1016300002D18020204105430020FFF7C1FA601C41
:10164000C4B2082CEEDB284670BD00000004024046
:1016500010B504460020FFF7B3FA0948006820F4EB
:10166000404040F48040064908602046FFF7B6FA43
:101670000120FFF7A5FA0020FFF7A2FA10BD000035
:101680000004024070B505460E48006820F4404052
:1016900040F480400B4908600020FFF791FA0024D5
:1016A0000DE08021214101EA0500FFF797FA0120B2
:1016B000FFF786FA0020FFF783FA601CC4B2082CFB
:1016C000EFDB70BD0004024010B50D48006820F447
:1016D000404040F480400A4908600120FFF77EFA4C
:1016E0000120FFF76DFA0420FFF7C5F90020FFF78E
:1016F00075FA0420FFF7BFF90020FFF761FA10BD6B
:101700000004024010B50D48006820F4404040F449
:1017100080400A4908600020FFF752FA0020FFF7D6
:101720005DFA0420FFF7A7F90120FFF749FA04202A
:10173000FFF7A1F90120FFF751FA10BD00040240A4
:1017400010B5044600BF02210A4800F0D1FE01286E
:10175000F9D12146074800F0D7FE00BF0121054816
:1017600000F0C6FE0128F9D1024800F0CAFEC0B25E
:1017700010BD00000038004000B587B0012188038B
:1017800000F09EFD0121022000F08AFD05220D21BE
:101790002E48FFF7CFF905220E212C48FFF7CAF992
:1017A00005220F212948FFF7C5F94FF46040059045
:1017B00002208DF8180000208DF81A008DF81B000B
:1017C00002208DF8190005A92048FFF76BF94FF4A6
:1017D0008050059001208DF8180000208DF81A0027
:1017E00001208DF81B0002208DF8190005A917486B
:1017F000FFF758F94FF480511448FFF7C7F9144820
:1018000000F01EFE4FF48270ADF802000020ADF82B
:101810000000ADF80400ADF80600ADF808004FF484
:101820000070ADF80A001020ADF80C000020ADF8F3
:101830000E000720ADF810006946054800F066FE6E
:101840000121034800F0F0FD07B000BD0004024094
:10185000003800407047000070B50025002400F0FB
:1018600085F908B1002070BD2C4800782C4908701B
:101870002A48407848702948C0782849897840EA41
:101880000125264840792549097940EA012000EEE2
:10189000100AB8EEC00A224880ED040A1F48C07939
:1018A0001E49897940EA012000EE100AB8EEC00A0C
:1018B0001B4880ED030A1948407A1849097A40EA22
:1018C000012000EE100AB8EEC00A154880ED010AAA
:1018D0001248807A124908751048C07A4875B5F5E3
:1018E000027F01DA4FF4027500BFA5F502704FF4D4
:1018F000617148434FF4F07190FBF1F4B4F5617FEE
:1019000001DD4FF4617400EE104AB8EEC00A0448DD
:1019100080ED020A0349CC710120A4E738010020C0
:10192000980300201801002070B52DED028B00F007
:10193000A3F9FFF76FF8B0EE408AB0EE080A38EE70
:10194000400ADFED380A20EE200ABCEEC00A10EE95
:10195000100AC5B2B0EE480AFFF730F80446AA20D4
:10196000314908700F2088700846C4700020087143
:101970002E480078487108468571FF20C8722C48AF
:1019800090ED000ABCEEC00A10EE100A0873284859
:1019900090ED010ABCEEC00A10EE100A487324480C
:1019A00090ED020ABCEEC00A10EE100A88732048BF
:1019B00090ED030ABCEEC00A10EE100AC8731C4872
:1019C00090ED040ABCEEC00A10EE100A0874184824
:1019D00090ED050ABCEEC00A10EE100A48741448D7
:1019E00090ED060ABCEEC00A10EE100A887410488A
:1019F00090ED070ABCEEC00A10EE100AC8740C483D
:101A000090ED080ABCEEC00A10EE100A087500F04E
:101A1000FDF80220FFF723F800F0E2F8BDEC028B9E
:101A200070BD00000000C84218010020BE00002068
:101A30005801002010B5002002F074F9E220FFF7F1
:101A40007FFE012002F06EF910BD10B5002002F0FB
:101A500069F9E120FFF774FE012002F063F910BD7F
:101A60001CB50121022000F01BFC4FF480600090A7
:101A700001208DF8040000208DF8060001208DF86B
:101A8000070002208DF8050069460348FFF70AF8B1
:101A9000002000F009F91CBD0004024010B5FFF75A
:101AA0006BFEFFF7DDFF002000F0FEF80F210020A5
:101AB00000F006F90121084600F002F90121022098
:101AC00000F0FEF80321084600F0FAF80321042094
:101AD00000F0F6F89021052000F0F2F80E21062023
:101AE00000F0EEF8052205490A2000F0FAF820215E
:101AF000112000F0E5F8FFF79DFF10BD98000020D1
:101B000070B50446002002F00DF92046FFF718FEDC
:101B1000FF20FFF715FE0546012002F003F92846D5
:101B200070BD70B505460E46002002F0FBF861203E
:101B3000FFF706FE002405E0FF20FFF701FE285511
:101B4000601CC4B2B442F7DB012002F0EBF870BDB8
:101B500010B5002002F0E6F8FF20FFF7F1FD044683
:101B6000012002F0DFF8204610BD000070B5FFF73D
:101B7000EFFF05460020FFF7C3FF04460F2C01D0FE
:101B8000FFF78CFF0020FFF7BBFF044605F0400085
:101B900078B120211048FFF7C4FF4021072000F052
:101BA0008FF8FFF747FF4FF47A700C490860002068
:101BB00070BD0A4801680068401E084A106049B9B3
:101BC0004FF47A7011460860FFF768FF00F008F8DC
:101BD0000120EDE70120EBE738010020A400002000
:101BE00010B5002000F060F80020FFF789FF0446E0
:101BF00044F003042146002000F062F80220FEF7C2
:101C00002EFF012000F050F810BD000070B5052235
:101C10001749102000F065F82021164800F07BF8E5
:101C2000052213490A2000F05CF80020FFF768FF46
:101C300005460E2D01D0FFF731FFFFF789FF04465F
:101C400004F0200038B1FFF700FF2021072000F04A
:101C500037F8012070BD04F0100038B1FFF7F5FE31
:101C60001021072000F02CF80220F3E700BFF1E775
:101C70009D0000201801002010B5002000F014F88D
:101C80000020FFF73DFF044644F0020424F0010465
:101C90002146002000F014F80220FEF7E0FE0120AB
:101CA00000F002F810BD000010B5044622464FF4C3
:101CB00080610248FEF76CFF10BD00000004024086
:101CC00070B504460D46002002F02CF844F02000C8
:101CD000FFF736FD2846FFF733FD012002F022F81A
:101CE00070BD2DE9F04105460E461746002002F072
:101CF00019F845F02000FFF723FD002404E0305DD3
:101D0000FFF71EFD601CC4B2BC42F8DB012002F0EC
:101D100009F8BDE8F08170B505460E46002002F0D6
:101D200001F8A020FFF70CFD002404E0285DFFF778
:101D300007FD601CC4B2B442F8DB012001F0F2FFE1
:101D400070BD000070B5002100230F22C4781CB3C1
:101D5000174C246804F4E064C4F5E064C4F307217C
:101D6000C1F10404E3B20A4144789C40E1B28478B2
:101D7000144021430C07210E0E4C05786155047860
:101D800004F01F050124AC4005786D11AD0005F18C
:101D9000E025C5F8004109E0047804F01F0501249E
:101DA000AC40054D0678761145F8264070BD000020
:101DB0000CED00E000E400E080E100E070B50024FC
:101DC0000EE00021204600F084F8002504E0002009
:101DD00000F0A0F8681CC5B2802DF8DB601CC4B20E
:101DE000082CEEDB70BD10B5FFF7CCFB10BD00007A
:101DF00010B504462046FFF745FC01224021044867
:101E0000FEF7C6FE002240210148FEF7C1FE10BDCC
:101E10000004024010B5FFF757FC10BD10B5FFF7E6
:101E200071FC10BD70B5002406E0002500E06D1CBB
:101E3000B5F57A7FFBD3641CB4F57A7FF5D3FFF751
:101E4000D2FFAE2000F056F8D52000F053F88020E5
:101E500000F050F8A82000F04DF83F2000F04AF8BC
:101E6000D32000F047F8002000F044F8402000F0B4
:101E700041F8A12000F03EF8C82000F03BF8DA203D
:101E800000F038F8122000F035F8812000F032F828
:101E9000CF2000F02FF8D92000F02CF8F12000F02E
:101EA00029F8DB2000F026F8302000F023F8A420E9
:101EB00000F020F8A62000F01DF88D2000F01AF8A0
:101EC000142000F017F8AF2000F014F8FFF776FFA9
:101ED00070BD70B505460C4645F0B00000F00AF83C
:101EE000102141EA141000F005F804F00F0000F092
:101EF00001F870BD10B50446FFF78CFF7820FFF79E
:101F000077FF0020FFF774FF2046FFF771FFFFF710
:101F100085FF10BD10B50446FFF77CFF7820FFF762
:101F200067FF4020FFF764FF2046FFF761FFFFF7E0
:101F300075FF10BD30EE601A80ED031A90ED031AA4
:101F4000D0ED061A31EE611A80ED051A3E49097D81
:101F50000A2945D13C4991ED021ADFED3C1AB4EE55
:101F6000E11AF1EE10FA3BDB90ED071AB4EEE01A3D
:101F7000F1EE10FA08D390ED071AB1EE411AB4EE63
:101F8000E01AF1EE10FA02DD002141622CE001219D
:101F9000416290ED041AD0ED031A31EE211A80ED62
:101FA000041A90ED041AD0ED081AB4EEE11AF1EE1D
:101FB00010FA03DD90ED081A80ED041A90ED041A72
:101FC000D0ED081AF1EE611AB4EEE11AF1EE10FA52
:101FD0000AD290ED081AB1EE411A80ED041A03E01E
:101FE0009FED1B1A80ED041A90ED001AD0ED031A34
:101FF00021EE211A80ED0A1A90ED091AB8EEC11AE5
:10200000D0ED011A21EE211AD0ED041A21EE211A89
:1020100080ED0B1A90ED021AD0ED051A21EE211A6F
:1020200080ED0C1A90ED0A1AD0ED0B1A31EE211A40
:10203000D0ED0C1A31EE211A80ED0D1A90ED031A35
:1020400080ED061A70470000980300200000484306
:102050000000000000206C4948629FED6C0A0846B1
:1020600080ED070A9FED6A0A80ED080A00206949A1
:1020700048629FED690A084680ED070A9FED670AEE
:1020800080ED080A0020664948629FED600A084614
:1020900080ED070A9FED5E0A80ED080A0020614985
:1020A00048629FED5D0A084680ED070A9FED5B0AD6
:1020B00080ED080A00205C4948629FED540A0846FA
:1020C00080ED070A9FED590A80ED080A0020584963
:1020D00048629FED510A084680ED070A9FED4F0ABE
:1020E00080ED080A0020534948629FED530A0846D4
:1020F00080ED070A9FED500A80ED080A00204F4945
:1021000048629FED4F0A084680ED070A9FED430A9B
:1021100080ED080A4B4890ED000A3B4880ED000A2C
:10212000494890ED000A3E4880ED000A474890ED8E
:10213000000A3D4880ED000A454890ED000A32480B
:1021400080ED010A434890ED000A354880ED010A10
:10215000414890ED000A344880ED010A3F4890ED77
:10216000000A294880ED020A3D4890ED000A2C48FB
:1021700080ED020A3B4890ED000A2B4880ED020AF0
:10218000394890ED000A234880ED000A374890ED69
:10219000000A244880ED000A354890ED000A2448E2
:1021A00080ED000A334890ED000A1A4880ED010ADC
:1021B000314890ED000A1B4880ED010A2F4890ED50
:1021C000000A1B4880ED010A2D4890ED000A1148D5
:1021D00080ED020A2B4890ED000A124880ED020AB9
:1021E000294890ED000A124880ED020A274890ED38
:1021F000000A274880ED000A264890ED000A26488C
:1022000080ED000A704700008002002000001643A5
:1022100000C0DA45D801002000000C42000048430D
:10222000B802002010020020F002002000009644B6
:102230004802002028030020000000006003002066
:102240000000C842C0000020CC000020D8000020C0
:10225000C4000020D0000020DC000020C8000020C6
:10226000D4000020E0000020E4000020F000002066
:10227000FC000020E8000020F40000200001002005
:10228000EC000020F80000200401002008010020DC
:10229000A80000200C010020AC00002070470000C6
:1022A00029B1064A12680243044B1A6004E0034A4B
:1022B00012688243014B1A607047000030380240B8
:1022C00029B1064A12680243044B1A6004E0034A2B
:1022D00012688243014B1A60704700004038024088
:1022E00029B1064A12680243044B1A6004E0034A0B
:1022F00012688243014B1A60704700002038024088
:1023000029B1064A12680243044B1A6004E0034AEA
:1023100012688243014B1A60704700004438024043
:1023200029B1064A12680243044B1A6004E0034ACA
:1023300012688243014B1A60704700002438024043
:10234000F0B5002100220024022500260223324F8E
:102350003F6807F00C0121B1042905D0082937D1C5
:1023600005E02E4F076036E02D4F076033E02A4F1F
:102370003F1F3F68C7F38056274F3F1F3F6807F056
:102380003F036EB1264FB7FBF3F7DFF88CC0ACF11B
:10239000040CDCF800C0CCF3881C07FB0CF40CE048
:1023A0001E4FB7FBF3F7DFF870C0ACF1040CDCF89C
:1023B00000C0CCF3881C07FB0CF4174F3F1F3F688D
:1023C000C7F301477F1C7D00B4FBF5F7076002E00F
:1023D000124F076000BF00BF0F4F3F6807F0F001CA
:1023E0000909104F7A5C0768D74047600A4F3F6879
:1023F00007F4E051890A0B4F7A5C4768D740876041
:10240000054F3F6807F46041490B064F7A5C476807
:10241000D740C760F0BD0000083802400024F40037
:1024200040787D010000002021B1028842F0400286
:10243000028004E002884FF6BF731A4002807047A2
:1024400010B504462448844208D101218014FFF7C6
:1024500067FF0021A014FFF763FF3CE01F488442A0
:1024600008D101210014FFF73BFF00212014FFF7E2
:1024700037FF30E01A48844208D10121C013FFF72A
:102480002FFF0021E013FFF72BFF24E015488442C3
:1024900008D101214014FFF743FF00216014FFF72A
:1024A0003FFF18E01048844209D101210805FFF7D9
:1024B00037FF00214FF48010FFF732FF0BE00B488D
:1024C000844208D101214805FFF72AFF00214FF47B
:1024D0000010FFF725FF10BD00300140003800401C
:1024E000003C0040003401400050014000540140D5
:1024F0000246002013890B400BB1012000E00020B0
:1025000070470146888970478181704710B5002265
:10251000028802F441520B884C8823438C88234361
:10252000CC8823430C8923434C8923438C89234340
:10253000CC8923431A430280838B4FF2FF742340DC
:1025400083830B8A038210BD10B565E0FFF784F921
:102550003248007E082836D2DFE800F035040B123E
:102560001920272E23462E4A2E492F4801F0B0FB72
:1025700029E023462D4A2E492E4801F0A9FB22E0EE
:1025800023462D4A2D492E4801F0A2FB1BE023468D
:102590002C4A2D492D4801F09BFB14E023462C4A80
:1025A0002C492D4801F094FB0DE023462B4A2C4981
:1025B0002C4801F08DFB06E023462B4A2B492C4882
:1025C00001F086FB00BF00BF2A4840780F2823D1C6
:1025D000154890ED000AB5EEC00AF1EE10FA0BD0E6
:1025E000144890ED000AB5EEC00AF1EE10FA03D0DF
:1025F00000202149087002E001201F490870FFF700
:102600003BFB6420FEF72BFAFFF78EF96420FEF700
:1026100026FAFFF7E5FA10BD98E700003801002020
:10262000C8000020C4000020C0000020D40000200A
:10263000D0000020CC000020E0000020DC000020C2
:10264000D8000020EC000020E8000020E40000207A
:10265000F8000020F4000020F00000200401002019
:1026600000010020FC000020100100200C010020CF
:102670000801002098030020BE00002070470000E1
:102680002248006840F080502049086020480068D7
:1026900040F440401E4908601C48383800681B4917
:1026A000383908600846006808600846006840F449
:1026B000805008601748091F0860081F006840F034
:1026C0008070091F086000BF10484038006800F0A3
:1026D00000700028F8D040F203700F4908600B48E2
:1026E0003838006820F00300084938390860084687
:1026F000006840F00200086000BF044838380068F5
:1027000000F00C000828F8D1704700004038024063
:102710000070004010640107003C02407047000058
:1027200010B51548006840F470001349086013485C
:10273000006840F001001149086000200F4908318D
:1027400008600E4800680E4908400C4908600D48B2
:10275000091D0860081F006820F48020091F086018
:10276000002006490C310860FFF78AFF4FF0006037
:1027700001498039086010BD88ED00E00038024052
:10278000FFFFF6FE1030002400B58BB001210220BF
:10279000FFF796FD01210320FFF782FD02208DF84F
:1027A000280000208DF82A0001208DF82B0003203E
:1027B0008DF82900C020099009A93048FEF772F968
:1027C000022206212D48FEF7B5F9022207212B48E7
:1027D000FEF7B0F90320099009A92948FEF762F92C
:1027E000022200212648FEF7A5F9022201212448F1
:1027F000FEF7A0F95320ADF8180040F2E73007903B
:102800000020ADF82000ADF81A0006A91D4800F020
:102810001FFA6020ADF804000120ADF8060000208A
:10282000ADF81000039001A9164800F0BDF801A909
:10283000144800F001F901A9124800F05DF901A95E
:10284000104800F0B3F908210E4800F0EBF8082119
:102850000C4800F043F908210A4800F09DF90821CE
:10286000084800F0DFF90121064800F04DF8012189
:10287000044800F072F80BB000BD000000000240F8
:10288000000402400004004010B50121054800F09A
:1028900070F830B10121034800F05CF801200249D2
:1028A000087010BD00080040B80000201FB50121CD
:1028B0000420FFF705FD5320ADF8040040F2CF706F
:1028C00002900020ADF80C00ADF8060001A90D48FB
:1028D00000F0BEF9012211460A4800F05BF81E2004
:1028E0008DF8000001208DF801008DF802008DF8B0
:1028F00003006846FFF726FA0121024800F02DF890
:102900001FBD00000008004021B1028842F0800293
:10291000028004E002884FF67F731A4002807047FD
:102920002DE9F04104460F4615461E46214608484B
:1029300000F085F93946064800F083F92946044835
:1029400000F081F93146024800F07FF9BDE8F081DE
:1029500000040040CA430282704721B1028842F05D
:102960000102028004E002884FF6FE731A400280E2
:10297000704730B50246002000230024158A05EA7E
:102980000103958905EA010413B10CB1012000E0AF
:10299000002030BD1AB183890B43838102E0838913
:1029A0008B4383817047000070B500240022002310
:1029B000058C4FF6FE7635400584028C8388048BA7
:1029C0004FF68F752C40B51E2C400D882C43751E7C
:1029D0002A408D892A434D882A43104DA84202D0AF
:1029E0000F4DA84213D14FF6F7752A40CD892A43DF
:1029F0004FF6FB752A408D882A434FF6FF652B4022
:102A00004FF6FF552B400D8A2B434D8A2B43838075
:102A100004838D684563028470BD0000000001409E
:102A2000000401400A460021018B4FF6F77319405C
:102A3000114301837047000070B500240022002379
:102A4000058C4FF6EF7635400584028C8388048B25
:102A500048F6FF752C404FF6FF452C400D884FF689
:102A6000FF7606EA05252C434FF6DF752A408D894F
:102A700006EA05152A434D8806EA05152A43154D31
:102A8000A84202D0144DA8421DD14FF67F752A40AE
:102A9000CD894FF6FF7606EA05152A434FF6BF7536
:102AA0002A408D8806EA05152A434FF6FF352B404C
:102AB0004FF2FF752B400D8A06EA85052B434D8AA0
:102AC00006EA85052B43838004838D688563028431
:102AD00070BD000000000140000401400A460021D2
:102AE000018B4FF2FF7319404FF6FF7303EA022385
:102AF000194301837047000070B5002400220023B1
:102B0000058C4FF6FF6635400584028C8388848BE4
:102B10004FF68F752C404FF6FC752C400D882C43DA
:102B20004FF6FF552A408D894FF6FF7606EA0525B8
:102B30002A434D8806EA05252A43154DA84202D0AE
:102B4000144DA8421DD14FF2FF752A40CD894FF692
:102B5000FF7606EA05252A434FF6FF352A408D8881
:102B600006EA05252A434EF6FF752B404DF6FF7504
:102B70002B400D8A06EA05152B434D8A06EA0515FA
:102B80002B43838084838D68C563028470BD0000FD
:102B900000000140000401400A460021818B4FF6ED
:102BA000F7731940114381837047000070B500220C
:102BB00000230024058C4EF6FF7635400584038CF7
:102BC0008488828B48F6FF752A404FF6FF452A40DD
:102BD0000D884FF6FF7606EA05252A434DF6FF7568
:102BE0002B408D8906EA05352B434D8806EA0535CD
:102BF0002B430A4DA84202D0094DA84208D14BF6FA
:102C0000FF752C400D8A4FF6FF7606EA85152C439A
:102C1000848082838D680564038470BD0000014058
:102C2000000401400A460021818B4FF2FF731940D6
:102C30004FF6FF7303EA0223194381837047416310
:102C4000704781637047C16370470164704700003B
:102C500000220288184B98420ED0184B98420BD095
:102C6000B0F1804F08D0164B984205D0154B9842D2
:102C700002D0154B984204D14FF68F731A404B88FF
:102C80001A43124B984207D0114B984204D04FF68A
:102C9000FF431A400B891A4302804B68C3620B88BA
:102CA0000385054B984202D0044B984201D18B7AA0
:102CB0000386012383827047000001400004014025
:102CC0000004004000080040000C004000100040DC
:102CD0000014004010B586B0044601210846FFF7F5
:102CE000DFFA01211020FFF70BFB07220921194809
:102CF000FDF720FF07220A211648FDF71BFF4FF4BE
:102D0000C060049002208DF814008DF8150000209A
:102D10008DF8160001208DF8170004A90D48FDF765
:102D2000C1FE00940020ADF80400ADF80600ADF837
:102D300008000C20ADF80A000020ADF80C00694630
:102D4000054800F017F80121034800F007F806B025
:102D500010BD0000000002400010014021B1828936
:102D600042F40052828104E082894DF6FF731A40DA
:102D7000828170472DE9FF4705460E460024A14693
:102D800000BFA046B08900B100BF2C8A24F4405493
:102D9000F08804432C82AC8941F20C608443B088F3
:102DA00031890843718908430443AC81AC8A24F417
:102DB0004074B0890443AC826846FFF7C1FA2048EA
:102DC000854202D01F48854202D1DDF80C9001E017
:102DD000DDF80890A88900F4004040B109EBC90073
:102DE00000EB091031684900B0FBF1F707E009EB8F
:102DF000C90000EB091031688900B0FBF1F76420CD
:102E0000B7FBF0F004012009642101FB1078A889C8
:102E100000F4004040B1322000EBC800B0FBF1F0FC
:102E200000F00700044308E0322000EB08106421A2
:102E3000B0FBF1F000F00F0004432C81BDE8FF87E8
:102E4000001001400014014000BFFEE703B40198E8
:102E50004100009850EAC12018BF04204A0D18BF55
:102E600040F0010040F2FF72B2EB515F08BF40F04A
:102E70000200012808BF052002B0704700000000D2
:102E800070B5C1482DED020B2DED0E8B82B0119D5A
:102E900025F000449FEDBEDB9FEDBFEB84423EDB9F
:102EA000A4F140511098A1F17F6108430FD0BC48B4
:102EB000844202DC28D1109830B39DED100B02B093
:102EC000BDEC0E8B02B0BDE8704000F069BC9DED1A
:102ED000100B53EC1D2B51EC100BFDF779F99DED08
:102EE000100B41EC180B53EC1E2B51EC100BFDF7A3
:102EF0006FF953EC182BFDF7A0FA41EC100B02B060
:102F0000BDEC0E8B02B070BD012000F08DFC02B054
:102F1000BDEC0E8B02B0BDE8704000F055BCA1487E
:102F20009FEDA18B844256DA9DED100BB4F1795FD1
:102F30000ADA51EC100BFFF789FF042808BF00F0F4
:102F400053FC9DED100BDAE753EC102B51EC100BFA
:102F5000FDF73EF941EC190B95480621B0EE490A00
:102F6000F0EE690A784400F09FFB53EC192B51EC0A
:102F7000100BFDF72DF941EC1A0B8E48B0EE490A03
:102F8000F0EE690A0421784400F08EFB53EC192B13
:102F900051EC100BFDF71CF953EC182BFDF74DFA13
:102FA00041EC100B51EC1A0B53EC102BFDF7ECFA23
:102FB000CDE900019DED000B53EC102B9DED100BA6
:102FC00051EC100BFDF704F99DED101B53EC112B88
:102FD000FDF733FAD2E09DED100B51EC100B00F031
:102FE000C1FD53EC182BFDF7CCFA9FED730BCDE927
:102FF000000153EC102B9DED000B51EC100BFDF775
:10300000E7F841EC190B6E480621B0EE490AF0EEE4
:10301000690A784400F048FB53EC192B51EC100B73
:10302000FDF7D6F841EC1B0B6648B0EE490AF0EE0E
:10303000690A0421784400F037FB53EC192B51EC5A
:10304000100BFDF7C5F853EC182BFDF7F6F941EC22
:103050001C0B51EC190B00F071FE41EC180B5A4897
:103060009FED5BABA04222DC53EC1C2B51EC1B0B05
:10307000FDF78AFACDE900019DED000B51EC180B2C
:1030800053EC102BFDF7A4F853EC182BFDF7D5F9F2
:1030900053EC1A2BFDF79CF853EC1D2BFDF76EFA41
:1030A00053EC1E2BFDF76DFA41EC100B5FE08DED3C
:1030B000008B002000909DED000B51EC180B53ECA1
:1030C000102BFDF7BAF99DED000B41EC1E0B53ECF4
:1030D000102B51EC100BFDF77BF853EC192BFDF77F
:1030E00050FA53EC1E2BFDF74FFA41EC190B53EC41
:1030F0001C2B51EC1B0BFDF747FA41EC1B0B53EC5F
:103100001A2B51EC190BFDF763F853EC1D2BFDF74F
:1031100038FA41EC190B53EC1A2B51EC180BFDF754
:1031200057F853EC1B2BFDF753F853EC192BFDF715
:1031300025FA9DED000B41EC180B53EC1A2B51ECCA
:10314000100BFDF745F89FED249B53EC192BFDF771
:1031500018FA41EC100B51EC180B53EC102BFDF747
:103160000DFA53EC192BFDF70CFA41EC100B002D66
:103170003FF7C5AE51EC100B81F0004141EC100B54
:10318000BDE60000000000000000F03F000000006D
:10319000075C143326A6913C182D4454FB21F93FBB
:1031A0000000F07F0000E03F000000000000F03F62
:1031B000480E0000560E0000000000000000E03F36
:1031C0009A0D0000A80D00003333EF3F000000000F
:1031D0000000000000000040182D4454FB21E93F8E
:1031E00070B59B482DED020B2DED068B079D25F04C
:1031F0000044A04218DC9748844202DC0AD10698B9
:1032000040B19DED060BBDEC068B02B0BDE87040F1
:1032100000F0C6BA002DCCBF9FED8F0B9FED900B39
:10322000BDEC068B02B070BD8F48A04215DD8F4803
:10323000A042D8BF4FF0FF3458DD9DED060B51EC96
:10324000100BFFF703FE042808BF00F0CDFA9DED38
:10325000060BBDEC068B02B070BD9DED060B51EC6C
:10326000100B00F07FFCCDE9060181489FED828BB9
:10327000A0423CDD8248A0421FDD00249FED82ABCE
:103280009DED060B53EC1A2B51EC100BFDF7D5F806
:103290009DED060B41EC190B53EC1A2B51EC100B66
:1032A000FCF796FF53EC182BFDF768F953EC192B3C
:1032B000FDF76AF9CDE9060149E09DED060B012411
:1032C00053EC182B51EC100BFDF7B7F89DED060BE6
:1032D00041EC190B53EC182B51EC100BFDF74EF988
:1032E00053EC192BFDF750F9CDE906012FE06848A2
:1032F000A0421FDD02249FED689B9DED060B53EC61
:10330000192B51EC100BFCF763FF53EC182BFDF756
:1033100094F89DED060B41EC180B53EC192B51EC76
:10332000100BFDF72BF953EC182BFDF72DF9CDE918
:1033300006010CE09DED060B032453EC102B9FEDD2
:10334000580B51EC100BFDF71FF9CDE906019DED6F
:10335000060B53EC102B51EC100BFCF739FF41EC32
:10336000180B53EC182BFCF733FF41EC190B4E48AC
:103370000621B0EE490AF0EE690A784400F094F9AB
:1033800053EC182B51EC100BFCF722FF41EC180BFF
:103390004648B0EE490AF0EE690A0521784400F08B
:1033A00083F953EC192B51EC100BFCF711FF41EC96
:1033B000100B51EC180B53EC102B002C0EDAFDF710
:1033C0003CF89DED061B53EC112BFCF701FF9DED26
:1033D000061B53EC112BFDF7D4F835E0FDF72DF863
:1033E0009DED061B53EC112BFCF7F2FE41EC100B8C
:1033F0002F48784400EBC40090ED001B51EC100BFB
:1034000053EC112BFDF7BAF89DED061B53EC112B75
:10341000FDF7B4F841EC100B2648784400EBC400EB
:1034200090ED001B51EC100B53EC112BFDF7A9F89C
:1034300041EC100B002DA2BFBDEC068B02B070BD9D
:1034400051EC100B81F0004141EC100B01E7000042
:10345000000010440000F07F182D4454FB21F93F78
:10346000182D4454FB21F9BF0000DC3F0000203E32
:103470000000F33F00000000000000000000F03FEB
:103480000000E63F000000000000000000000040D7
:103490000080034000000000000000000000F83F32
:1034A000000000000000F0BFEA0A0000A00A0000CF
:1034B0002A0A0000E209000070B56B4E2DED040BE6
:1034C0002DED028B82B0DDF81CC0DDE905235C42E6
:1034D0002CF000411C4341EAD474049D22F00040CA
:1034E000B44205D86C422C4340EAD474B4420BD9A0
:1034F0009DED061B9DED040B02B0BDEC028B04B0EC
:10350000BDE8704000F056B9ACF14054A4F17F64BE
:103510001C430BD0022404EAAC7444EAD274054381
:103520009FED538B9FED542B07D015E09DED040BC1
:1035300051EC100B00F07EF942E0002C11BF012C81
:103540009DED040B02B0BDEC028B04BF04B070BD56
:10355000022C38D0032C3BD00B439FED491B9FED31
:103560004A0B0AD0B14218D1B04209D121F08041B2
:1035700020F08040079105900FE0002A15DA10E056
:10358000434B7B44002C08BF93ED000B0DD0012C66
:1035900010D0022C17D0032C1AD0B0421DD1002A13
:1035A00003DAB0EE410AF0EE610A02B0BDEC028B24
:1035B00004B070BD93ED000B51EC100B81F0004195
:1035C00041EC100BF1E7B0EE480AF0EE680AECE7C8
:1035D000B0EE420AF0EE620AE7E7401A00153C2816
:1035E000C8BF8DED000B19DCBCF1000FBEBF10F1A0
:1035F0003C0F9FED290B8DED000B0FDB9DED060BB6
:1036000053EC102B9DED040B51EC100BFCF7BCFFA1
:1036100000F0A8FA00F00EF9CDE90001002C08BF77
:103620009DED000BC1D0012C10D0022C9FED1C0B86
:1036300053EC102B9DED000B51EC100B0DD0FCF753
:103640009DFF53EC182BFCF799FFB9E7019880F028
:10365000004001909DED000BA7E7FCF78FFF53ECB6
:10366000182BFCF78EFFABE70000F07F0000000096
:10367000182D4454FB210940182D4454FB2109C046
:10368000182D4454FB21F9BF182D4454FB21F93F58
:10369000120900000000000000000000000000000F
:1036A000075C143326A6A13C70B504462DED028BB1
:1036B0004D1E00EBC500B0EE408AF0EE608A90ED42
:1036C000000B35F0060017D053EC182B51EC100B03
:1036D000FCF77EFD41EC100B6D1E04EBC50090ED78
:1036E000001B51EC100B53EC112BFCF7A6FE41EC28
:1036F000100B35F00600E7D1022D36D0042D1CD07A
:10370000062D1CBFBDEC028B70BD53EC182B51EC89
:10371000100BFCF75DFD94ED0A1B53EC112BFCF72D
:103720008CFE53EC182BFCF753FD94ED081B53EC67
:10373000112BFCF782FE41EC100B53EC182B51ECD3
:10374000100BFCF745FD94ED061B53EC112BFCF719
:1037500074FE53EC182BFCF73BFD94ED040B53EC7B
:10376000102BFCF76AFE41EC100B53EC182B51ECBC
:10377000100BFCF72DFD94ED021B53EC112BFCF705
:103780005CFE53EC182BFCF723FD94ED001B53EC6F
:10379000112BFCF752FEBDEC028B41EC100B70BDFF
:1037A00010B553EC102B51EC100BFCF746FE41EC1E
:1037B000100B10BD10B553EC112B51EC100BFCF796
:1037C0003CFE41EC100B10BD9FED050B10B553EC0A
:1037D000102B51EC100BFCF7D7FE41EC100B10BD79
:1037E00000000000000000009FED050B10B553EC39
:1037F000102B51EC100BFCF7EBFC41EC100B10BD47
:10380000000000000000001002E008C8121F08C1FC
:10381000002AFAD170477047002001E001C1121F51
:10382000002AFBD170470000014908607047000082
:103830001401002010B541EC100BFFF7D1FC51EC46
:10384000100B10BD002800DC002040F2E731884258
:1038500000DB084670470000F0B587B006460D460D
:10386000144696ED000A8DED040A96ED010A8DEDE1
:10387000050A96ED020A8DED060A94ED010ADFEDC8
:10388000AA0A30EE600AF2EE080A80EE201A8DEDE8
:10389000011A94ED030ADFEDA40A30EE600AF2EE9D
:1038A000080A80EE201A8DED021A94ED040ADFED6D
:1038B0009E0A30EEC00AF2EE080A80EE201A8DED64
:1038C000031A9DED010A9948D0ED000A30EE200A56
:1038D0008DED010A9DED020A9548D0ED000A30EE0B
:1038E000200A8DED020A95ED000A924880ED040A47
:1038F00095ED010A80ED050A9DED041AF0EE410AEE
:103900009DED011AB0EE410A8B48FEF713FB9DEDC9
:10391000051AF0EE410A9DED021AB0EE410A874801
:10392000FEF708FB95ED001AF0EE410A824890ED93
:103930000D1AB0EE410A8248FEF7FCFA95ED011A25
:10394000F0EE410A7D4890ED0D1AB0EE410A7D4837
:10395000FEF7F0FA9DED031A7B48D0ED001A21EE38
:10396000211AB0EE410A95ED021AF0EE410A7748AD
:10397000FEF7E0FA734890ED0A0A6E4880ED060AF9
:10398000704890ED0B0A6B4880ED070A6D4890ED8A
:103990000D0A684880ED080A94ED020ADFED6C0A12
:1039A000B4EEE00AF1EE10FA60DD94ED020A64482C
:1039B000D0ED0D0A30EE600A6248D0ED0D0A30EE0F
:1039C000600A6248D0ED0D0A30EE600ABDEEC00A12
:1039D00010EE100A00B25F49088094ED020A5848C0
:1039E000D0ED0D0A30EE200A5648D0ED0D0A30EE2B
:1039F000600A5648D0ED0D0A30EE200ABDEEC00A2E
:103A000010EE100A00B25449088094ED020A4C48A6
:103A1000D0ED0D0A30EE600A4A48D0ED0D0A30EEC6
:103A2000200A4A48D0ED0D0A30EE200ABDEEC00A49
:103A300010EE100A00B24949088094ED020A40488D
:103A4000D0ED0D0A30EE200A3E48D0ED0D0A30EEE2
:103A5000200A3E48D0ED0D0A30EE600ABDEEC00AE5
:103A600010EE100A00B23E49088008E000203949F3
:103A70000880394908803949088039490880354823
:103A8000B0F90000FFF7DEFE324908803248B0F995
:103A90000000FFF7D7FE304908803048B0F9000039
:103AA000FFF7D0FE2D4908802D48B0F90000FFF740
:103AB000C9FE2B4908802748B0F9000000EE100A23
:103AC000B8EEC00A1B4880ED000A2348B0F9000098
:103AD00000EE100AB8EEC00A164880ED010A1F4831
:103AE000B0F9000000EE100AB8EEC00A114880EDEF
:103AF000020A0846B0F9000000EE100AB8EEC00A4B
:103B00000C4880ED030A0F463F88BBB2134F3F8835
:103B1000BAB2114F3F88B9B20E4F3F88B8B2FEF724
:103B2000FFFE07B0F0BD00000080BB44A8000020ED
:103B3000AC00002058010020D80100201002002015
:103B400080020020B802002048020020F00200207D
:103B500000003443B0000020B2000020B400002078
:103B6000B600002082B0CDE9000121F000400190B4
:103B70009DED000B02B051EC100B7047F0EE400AC7
:103B8000F6EE001A60EEA11AB0EE611AB0EE600A0D
:103B900010EE100A0749A1EB600000EE100A21EEBA
:103BA000002AF7EE081A42EE401A61EE801AB0EED3
:103BB000610A7047865A375FFEF734F9FDF78EFCCD
:103BC000FDF7C4FB4FF4E130FFF784F8FEF7DCFDAE
:103BD000002037490870487036490870FCF7D8FD56
:103BE000FDF75CFFFEF762FEFDF7FAFF0024FEF72B
:103BF000ABFCFEF72FFA45F25550FDF795FB04207C
:103C0000FDF786FBFA20FDF789FBFDF779FBFDF751
:103C10006FFB4BE0FDF774FBFDF71EFE012800D1A2
:103C2000002425480078012831D10020224908705D
:103C3000601C84B2B4F5FA7F09DD00231A461946E8
:103C40001846FEF76DFE0F201C4908752EE01C4932
:103C50001C48FCF7D1FF1948007D0A2808D11A48F2
:103C6000007828B9154A16491648FFF7F5FD0EE009
:103C70001248007D0F280AD1002013490870002344
:103C80001A4619461846FEF74BFEFDF74DFE0F4843
:103C900040780F2809D107480078401C0549087072
:103CA000FDF742FE00200949487000BFB2E700005E
:103CB00018010020BD000020B8000020980300205B
:103CC000B0030020BC030020BC000020380100200D
:103CD00010B5134C247B0470114C647B4470104C61
:103CE000A47B84700E4CE47BC4700D4C247C0C705F
:103CF0000B4C647C4C700A4CA47C8C70084CE47CAB
:103D0000CC70074C247D1470054C647D5470044CB9
:103D1000A47D9470024CE47DD470014C237E10BDD0
:103D20003801002010B5044622464FF48051024865
:103D3000FCF72EFF10BD00000004024000B52DED81
:103D4000048B83B041EC190BFCF7D1FC41EC180B50
:103D500018EE100A18EE901A8DED008B002818BF8F
:103D60000120084320F00040C0F17F6000F1E040F6
:103D7000C00F14D019EE101A19EE900A8DED009BA9
:103D8000002918BF0121084320F00040C0F17F60E6
:103D900000F1E040C00F04BF0120FFF745FD51ECEA
:103DA000180B03B0BDEC048B00BD00000000000048
:103DB000555555555555C53F7D6FEB0312D6D4BFAC
:103DC0005544880E55C1C93F3B8F68B52882A4BFB2
:103DD00088B20175E0EF493F09F7FD0DE13D023F73
:103DE0004B2D8A1C273A03C0C88A599CE52A0040FB
:103DF00059018D1B6C06E6BF82922EB1C5B8B33F48
:103E00004FBB610567ACDD3F182D4454FB21E93FF2
:103E10009BF681D20B73EF3F182D4454FB21F93FE1
:103E2000E2652F227F2B7A3C075C143326A6813C67
:103E3000BDCBF07A8807703C075C143326A6913C12
:103E4000C4EB98999999C9BF711623FEC671BCBF7E
:103E50006D9A74AFF2B0B3BF9AFDDE522DDEADBFE6
:103E60002F6C6A2C44B4A2BF0D5555555555D53FFE
:103E7000FF8300922449C23F6E204CC5CD45B73F19
:103E8000513DD0A0660DB13FEB0D76244B7BA93F91
:103E900011DA22E33AAD903F00000000000000007C
:103EA000C03E00080000002018010000083800088B
:103EB000D83F000818010020F0060000183800085C
:103EC00000000000010203040102030406070809C0
:103ED000000000000000000000000000CDCCCC3E3F
:103EE00000000000010000000100000001000000CF
:103EF00000000000000000000000000000000000C2
:103F000000000000000000000000000000000000B1
:103F100000000000000000000000803F00000000E2
:103F20000000000000000000000000000000000091
:103F30000000000000000000000000000000000081
:103F40000000000000000000000000000000000071
:103F50000000000000000000222222222222222251
:103F600022220000E8030000000000000000000022
:103F700064006400640064000000000000000F00A2
:103F80000000000000000000000000000000000031
:103F90000000000000000000000000000000000021
:103FA0000000000000000000000000000000000011
:103FB0000000000000000000000000000000000001
:103FC00000000000000000000000000000000000F1
:083FD0000000000000000000E9
:040000050800019955
:00000001FF
